{
  "_format": "hh-sol-artifact-1",
  "contractName": "NFTCollections",
  "sourceName": "contracts/NFTCollections.sol",
  "abi": [
    {
      "inputs": [
        {
          "internalType": "address",
          "name": "_nftContract",
          "type": "address"
        }
      ],
      "stateMutability": "nonpayable",
      "type": "constructor"
    },
    {
      "inputs": [],
      "name": "CollectionNotActive",
      "type": "error"
    },
    {
      "inputs": [],
      "name": "InvalidCollectionID",
      "type": "error"
    },
    {
      "inputs": [],
      "name": "InvalidFloorPrice",
      "type": "error"
    },
    {
      "inputs": [],
      "name": "InvalidMaxSupply",
      "type": "error"
    },
    {
      "inputs": [],
      "name": "InvalidNFTCount",
      "type": "error"
    },
    {
      "inputs": [],
      "name": "InvalidNumberOfTokens",
      "type": "error"
    },
    {
      "inputs": [],
      "name": "InvalidOfferDuration",
      "type": "error"
    },
    {
      "inputs": [],
      "name": "InvalidOfferId",
      "type": "error"
    },
    {
      "inputs": [],
      "name": "MaximumSupplyReached",
      "type": "error"
    },
    {
      "inputs": [],
      "name": "NoActiveCollectionOffer",
      "type": "error"
    },
    {
      "inputs": [],
      "name": "NotTokenOwner",
      "type": "error"
    },
    {
      "inputs": [],
      "name": "OfferBelowFloorPrice",
      "type": "error"
    },
    {
      "inputs": [],
      "name": "OfferExpired",
      "type": "error"
    },
    {
      "inputs": [],
      "name": "OffsetOutOfBounds",
      "type": "error"
    },
    {
      "inputs": [
        {
          "internalType": "address",
          "name": "owner",
          "type": "address"
        }
      ],
      "name": "OwnableInvalidOwner",
      "type": "error"
    },
    {
      "inputs": [
        {
          "internalType": "address",
          "name": "account",
          "type": "address"
        }
      ],
      "name": "OwnableUnauthorizedAccount",
      "type": "error"
    },
    {
      "inputs": [],
      "name": "ReentrancyGuardReentrantCall",
      "type": "error"
    },
    {
      "inputs": [],
      "name": "RoyaltyPercentageTooHigh",
      "type": "error"
    },
    {
      "inputs": [],
      "name": "Unauthorized",
      "type": "error"
    },
    {
      "anonymous": false,
      "inputs": [
        {
          "indexed": true,
          "internalType": "uint256",
          "name": "collectionId",
          "type": "uint256"
        },
        {
          "indexed": true,
          "internalType": "address",
          "name": "collectionAddress",
          "type": "address"
        },
        {
          "indexed": true,
          "internalType": "address",
          "name": "creator",
          "type": "address"
        }
      ],
      "name": "CollectionAdded",
      "type": "event"
    },
    {
      "anonymous": false,
      "inputs": [
        {
          "indexed": true,
          "internalType": "uint256",
          "name": "collectionId",
          "type": "uint256"
        },
        {
          "indexed": true,
          "internalType": "uint256",
          "name": "offerId",
          "type": "uint256"
        },
        {
          "indexed": false,
          "internalType": "uint256[]",
          "name": "tokenIds",
          "type": "uint256[]"
        },
        {
          "indexed": true,
          "internalType": "address",
          "name": "seller",
          "type": "address"
        },
        {
          "indexed": false,
          "internalType": "address",
          "name": "buyer",
          "type": "address"
        },
        {
          "indexed": false,
          "internalType": "uint256",
          "name": "amount",
          "type": "uint256"
        }
      ],
      "name": "CollectionOfferAccepted",
      "type": "event"
    },
    {
      "anonymous": false,
      "inputs": [
        {
          "indexed": true,
          "internalType": "uint256",
          "name": "collectionId",
          "type": "uint256"
        },
        {
          "indexed": true,
          "internalType": "uint256",
          "name": "offerId",
          "type": "uint256"
        },
        {
          "indexed": true,
          "internalType": "address",
          "name": "offerer",
          "type": "address"
        },
        {
          "indexed": false,
          "internalType": "uint256",
          "name": "amount",
          "type": "uint256"
        },
        {
          "indexed": false,
          "internalType": "uint256",
          "name": "nftCount",
          "type": "uint256"
        },
        {
          "indexed": false,
          "internalType": "uint256",
          "name": "expirationTime",
          "type": "uint256"
        }
      ],
      "name": "CollectionOfferPlaced",
      "type": "event"
    },
    {
      "anonymous": false,
      "inputs": [
        {
          "indexed": true,
          "internalType": "uint256",
          "name": "collectionId",
          "type": "uint256"
        },
        {
          "indexed": true,
          "internalType": "uint256",
          "name": "offerId",
          "type": "uint256"
        },
        {
          "indexed": true,
          "internalType": "address",
          "name": "offerer",
          "type": "address"
        },
        {
          "indexed": false,
          "internalType": "uint256",
          "name": "amount",
          "type": "uint256"
        }
      ],
      "name": "CollectionOfferWithdrawn",
      "type": "event"
    },
    {
      "anonymous": false,
      "inputs": [
        {
          "indexed": true,
          "internalType": "uint256",
          "name": "collectionId",
          "type": "uint256"
        },
        {
          "indexed": false,
          "internalType": "uint256",
          "name": "newFloorPrice",
          "type": "uint256"
        }
      ],
      "name": "FloorPriceUpdated",
      "type": "event"
    },
    {
      "anonymous": false,
      "inputs": [
        {
          "indexed": true,
          "internalType": "uint256",
          "name": "collectionId",
          "type": "uint256"
        },
        {
          "indexed": true,
          "internalType": "uint256",
          "name": "tokenId",
          "type": "uint256"
        },
        {
          "indexed": true,
          "internalType": "address",
          "name": "owner",
          "type": "address"
        }
      ],
      "name": "NFTMinted",
      "type": "event"
    },
    {
      "anonymous": false,
      "inputs": [
        {
          "indexed": true,
          "internalType": "uint256",
          "name": "offerId",
          "type": "uint256"
        },
        {
          "indexed": false,
          "internalType": "enum NFTCollections.OfferStatus",
          "name": "status",
          "type": "uint8"
        }
      ],
      "name": "OfferStatusUpdated",
      "type": "event"
    },
    {
      "anonymous": false,
      "inputs": [
        {
          "indexed": true,
          "internalType": "address",
          "name": "previousOwner",
          "type": "address"
        },
        {
          "indexed": true,
          "internalType": "address",
          "name": "newOwner",
          "type": "address"
        }
      ],
      "name": "OwnershipTransferred",
      "type": "event"
    },
    {
      "anonymous": false,
      "inputs": [
        {
          "indexed": true,
          "internalType": "uint256",
          "name": "collectionId",
          "type": "uint256"
        },
        {
          "indexed": false,
          "internalType": "uint256",
          "name": "newRoyaltyPercentage",
          "type": "uint256"
        }
      ],
      "name": "RoyaltyPercentageUpdated",
      "type": "event"
    },
    {
      "inputs": [
        {
          "internalType": "uint256",
          "name": "_collectionId",
          "type": "uint256"
        },
        {
          "internalType": "uint256[]",
          "name": "tokenIds",
          "type": "uint256[]"
        },
        {
          "internalType": "address",
          "name": "offerer",
          "type": "address"
        },
        {
          "internalType": "address",
          "name": "sender",
          "type": "address"
        }
      ],
      "name": "acceptCollectionOffer",
      "outputs": [],
      "stateMutability": "nonpayable",
      "type": "function"
    },
    {
      "inputs": [],
      "name": "collectionCounter",
      "outputs": [
        {
          "internalType": "uint256",
          "name": "",
          "type": "uint256"
        }
      ],
      "stateMutability": "view",
      "type": "function"
    },
    {
      "inputs": [
        {
          "internalType": "uint256",
          "name": "",
          "type": "uint256"
        },
        {
          "internalType": "address",
          "name": "",
          "type": "address"
        }
      ],
      "name": "collectionOffers",
      "outputs": [
        {
          "internalType": "uint256",
          "name": "offerId",
          "type": "uint256"
        },
        {
          "internalType": "uint256",
          "name": "collectionId",
          "type": "uint256"
        },
        {
          "internalType": "address",
          "name": "offerer",
          "type": "address"
        },
        {
          "internalType": "uint256",
          "name": "amount",
          "type": "uint256"
        },
        {
          "internalType": "uint256",
          "name": "nftCount",
          "type": "uint256"
        },
        {
          "internalType": "uint256",
          "name": "timestamp",
          "type": "uint256"
        },
        {
          "internalType": "uint256",
          "name": "expirationTime",
          "type": "uint256"
        },
        {
          "internalType": "bool",
          "name": "isActive",
          "type": "bool"
        },
        {
          "internalType": "enum NFTCollections.OfferStatus",
          "name": "status",
          "type": "uint8"
        }
      ],
      "stateMutability": "view",
      "type": "function"
    },
    {
      "inputs": [
        {
          "internalType": "uint256",
          "name": "",
          "type": "uint256"
        }
      ],
      "name": "collections",
      "outputs": [
        {
          "internalType": "uint256",
          "name": "collectionId",
          "type": "uint256"
        },
        {
          "internalType": "address",
          "name": "creator",
          "type": "address"
        },
        {
          "internalType": "uint256",
          "name": "maxSupply",
          "type": "uint256"
        },
        {
          "internalType": "uint256",
          "name": "mintedSupply",
          "type": "uint256"
        },
        {
          "internalType": "uint256",
          "name": "royaltyPercentage",
          "type": "uint256"
        },
        {
          "internalType": "uint256",
          "name": "floorPrice",
          "type": "uint256"
        },
        {
          "internalType": "bool",
          "name": "isActive",
          "type": "bool"
        }
      ],
      "stateMutability": "view",
      "type": "function"
    },
    {
      "inputs": [
        {
          "internalType": "uint256",
          "name": "_maxSupply",
          "type": "uint256"
        },
        {
          "internalType": "uint256",
          "name": "_royaltyPercentage",
          "type": "uint256"
        },
        {
          "internalType": "uint256",
          "name": "_floorPrice",
          "type": "uint256"
        }
      ],
      "name": "createCollection",
      "outputs": [
        {
          "internalType": "uint256",
          "name": "",
          "type": "uint256"
        }
      ],
      "stateMutability": "nonpayable",
      "type": "function"
    },
    {
      "inputs": [
        {
          "internalType": "uint256",
          "name": "_collectionId",
          "type": "uint256"
        }
      ],
      "name": "getCollectionInfo",
      "outputs": [
        {
          "components": [
            {
              "internalType": "uint256",
              "name": "collectionId",
              "type": "uint256"
            },
            {
              "internalType": "address",
              "name": "creator",
              "type": "address"
            },
            {
              "internalType": "uint256",
              "name": "maxSupply",
              "type": "uint256"
            },
            {
              "internalType": "uint256",
              "name": "mintedSupply",
              "type": "uint256"
            },
            {
              "internalType": "uint256",
              "name": "royaltyPercentage",
              "type": "uint256"
            },
            {
              "internalType": "uint256",
              "name": "floorPrice",
              "type": "uint256"
            },
            {
              "internalType": "bool",
              "name": "isActive",
              "type": "bool"
            }
          ],
          "internalType": "struct NFTCollections.CollectionInfo",
          "name": "",
          "type": "tuple"
        }
      ],
      "stateMutability": "view",
      "type": "function"
    },
    {
      "inputs": [
        {
          "internalType": "uint256",
          "name": "_collectionId",
          "type": "uint256"
        }
      ],
      "name": "getCollectionOffers",
      "outputs": [
        {
          "components": [
            {
              "internalType": "uint256",
              "name": "offerId",
              "type": "uint256"
            },
            {
              "internalType": "uint256",
              "name": "collectionId",
              "type": "uint256"
            },
            {
              "internalType": "address",
              "name": "offerer",
              "type": "address"
            },
            {
              "internalType": "uint256",
              "name": "amount",
              "type": "uint256"
            },
            {
              "internalType": "uint256",
              "name": "nftCount",
              "type": "uint256"
            },
            {
              "internalType": "uint256",
              "name": "timestamp",
              "type": "uint256"
            },
            {
              "internalType": "uint256",
              "name": "expirationTime",
              "type": "uint256"
            },
            {
              "internalType": "bool",
              "name": "isActive",
              "type": "bool"
            },
            {
              "internalType": "enum NFTCollections.OfferStatus",
              "name": "status",
              "type": "uint8"
            }
          ],
          "internalType": "struct NFTCollections.CollectionOffer[]",
          "name": "",
          "type": "tuple[]"
        }
      ],
      "stateMutability": "view",
      "type": "function"
    },
    {
      "inputs": [
        {
          "internalType": "uint256",
          "name": "_offset",
          "type": "uint256"
        },
        {
          "internalType": "uint256",
          "name": "_limit",
          "type": "uint256"
        }
      ],
      "name": "getCollections",
      "outputs": [
        {
          "components": [
            {
              "internalType": "uint256",
              "name": "collectionId",
              "type": "uint256"
            },
            {
              "internalType": "address",
              "name": "creator",
              "type": "address"
            },
            {
              "internalType": "uint256",
              "name": "maxSupply",
              "type": "uint256"
            },
            {
              "internalType": "uint256",
              "name": "mintedSupply",
              "type": "uint256"
            },
            {
              "internalType": "uint256",
              "name": "royaltyPercentage",
              "type": "uint256"
            },
            {
              "internalType": "uint256",
              "name": "floorPrice",
              "type": "uint256"
            },
            {
              "internalType": "bool",
              "name": "isActive",
              "type": "bool"
            }
          ],
          "internalType": "struct NFTCollections.CollectionInfo[]",
          "name": "",
          "type": "tuple[]"
        }
      ],
      "stateMutability": "view",
      "type": "function"
    },
    {
      "inputs": [
        {
          "internalType": "uint256",
          "name": "_collectionId",
          "type": "uint256"
        }
      ],
      "name": "getMintedNFTs",
      "outputs": [
        {
          "internalType": "uint256[]",
          "name": "",
          "type": "uint256[]"
        }
      ],
      "stateMutability": "view",
      "type": "function"
    },
    {
      "inputs": [
        {
          "internalType": "uint256",
          "name": "_offerId",
          "type": "uint256"
        }
      ],
      "name": "getOfferById",
      "outputs": [
        {
          "components": [
            {
              "internalType": "uint256",
              "name": "offerId",
              "type": "uint256"
            },
            {
              "internalType": "uint256",
              "name": "collectionId",
              "type": "uint256"
            },
            {
              "internalType": "address",
              "name": "offerer",
              "type": "address"
            },
            {
              "internalType": "uint256",
              "name": "amount",
              "type": "uint256"
            },
            {
              "internalType": "uint256",
              "name": "nftCount",
              "type": "uint256"
            },
            {
              "internalType": "uint256",
              "name": "timestamp",
              "type": "uint256"
            },
            {
              "internalType": "uint256",
              "name": "expirationTime",
              "type": "uint256"
            },
            {
              "internalType": "bool",
              "name": "isActive",
              "type": "bool"
            },
            {
              "internalType": "enum NFTCollections.OfferStatus",
              "name": "status",
              "type": "uint8"
            }
          ],
          "internalType": "struct NFTCollections.CollectionOffer",
          "name": "",
          "type": "tuple"
        }
      ],
      "stateMutability": "view",
      "type": "function"
    },
    {
      "inputs": [
        {
          "internalType": "address",
          "name": "user",
          "type": "address"
        }
      ],
      "name": "getUserCollectionOffers",
      "outputs": [
        {
          "components": [
            {
              "internalType": "uint256",
              "name": "offerId",
              "type": "uint256"
            },
            {
              "internalType": "uint256",
              "name": "collectionId",
              "type": "uint256"
            },
            {
              "internalType": "address",
              "name": "offerer",
              "type": "address"
            },
            {
              "internalType": "uint256",
              "name": "amount",
              "type": "uint256"
            },
            {
              "internalType": "uint256",
              "name": "nftCount",
              "type": "uint256"
            },
            {
              "internalType": "uint256",
              "name": "timestamp",
              "type": "uint256"
            },
            {
              "internalType": "uint256",
              "name": "expirationTime",
              "type": "uint256"
            },
            {
              "internalType": "bool",
              "name": "isActive",
              "type": "bool"
            },
            {
              "internalType": "enum NFTCollections.OfferStatus",
              "name": "status",
              "type": "uint8"
            }
          ],
          "internalType": "struct NFTCollections.CollectionOffer[]",
          "name": "",
          "type": "tuple[]"
        }
      ],
      "stateMutability": "view",
      "type": "function"
    },
    {
      "inputs": [
        {
          "internalType": "address",
          "name": "user",
          "type": "address"
        }
      ],
      "name": "getUserCreatedCollections",
      "outputs": [
        {
          "internalType": "uint256[]",
          "name": "",
          "type": "uint256[]"
        }
      ],
      "stateMutability": "view",
      "type": "function"
    },
    {
      "inputs": [
        {
          "internalType": "address",
          "name": "",
          "type": "address"
        },
        {
          "internalType": "uint256",
          "name": "",
          "type": "uint256"
        }
      ],
      "name": "hasUserCollectionOffer",
      "outputs": [
        {
          "internalType": "bool",
          "name": "",
          "type": "bool"
        }
      ],
      "stateMutability": "view",
      "type": "function"
    },
    {
      "inputs": [
        {
          "internalType": "uint256",
          "name": "",
          "type": "uint256"
        },
        {
          "internalType": "address",
          "name": "",
          "type": "address"
        }
      ],
      "name": "isOffererInCollection",
      "outputs": [
        {
          "internalType": "bool",
          "name": "",
          "type": "bool"
        }
      ],
      "stateMutability": "view",
      "type": "function"
    },
    {
      "inputs": [
        {
          "internalType": "uint256",
          "name": "_collectionId",
          "type": "uint256"
        },
        {
          "internalType": "uint256",
          "name": "price",
          "type": "uint256"
        },
        {
          "internalType": "string",
          "name": "tokenURI",
          "type": "string"
        }
      ],
      "name": "mintNFT",
      "outputs": [
        {
          "internalType": "uint256",
          "name": "",
          "type": "uint256"
        }
      ],
      "stateMutability": "nonpayable",
      "type": "function"
    },
    {
      "inputs": [],
      "name": "owner",
      "outputs": [
        {
          "internalType": "address",
          "name": "",
          "type": "address"
        }
      ],
      "stateMutability": "view",
      "type": "function"
    },
    {
      "inputs": [
        {
          "internalType": "uint256",
          "name": "_collectionId",
          "type": "uint256"
        },
        {
          "internalType": "uint256",
          "name": "nftCount",
          "type": "uint256"
        },
        {
          "internalType": "uint256",
          "name": "duration",
          "type": "uint256"
        }
      ],
      "name": "placeCollectionOffer",
      "outputs": [],
      "stateMutability": "payable",
      "type": "function"
    },
    {
      "inputs": [],
      "name": "renounceOwnership",
      "outputs": [],
      "stateMutability": "nonpayable",
      "type": "function"
    },
    {
      "inputs": [
        {
          "internalType": "address",
          "name": "newOwner",
          "type": "address"
        }
      ],
      "name": "transferOwnership",
      "outputs": [],
      "stateMutability": "nonpayable",
      "type": "function"
    },
    {
      "inputs": [
        {
          "internalType": "uint256",
          "name": "_collectionId",
          "type": "uint256"
        },
        {
          "internalType": "uint256",
          "name": "_floorPrice",
          "type": "uint256"
        }
      ],
      "name": "updateFloorPrice",
      "outputs": [],
      "stateMutability": "nonpayable",
      "type": "function"
    },
    {
      "inputs": [
        {
          "internalType": "uint256",
          "name": "_collectionId",
          "type": "uint256"
        },
        {
          "internalType": "uint256",
          "name": "_royaltyPercentage",
          "type": "uint256"
        }
      ],
      "name": "updateRoyaltyPercentage",
      "outputs": [],
      "stateMutability": "nonpayable",
      "type": "function"
    },
    {
      "inputs": [
        {
          "internalType": "address",
          "name": "",
          "type": "address"
        },
        {
          "internalType": "uint256",
          "name": "",
          "type": "uint256"
        }
      ],
      "name": "userCollectionOffers",
      "outputs": [
        {
          "internalType": "uint256",
          "name": "",
          "type": "uint256"
        }
      ],
      "stateMutability": "view",
      "type": "function"
    },
    {
      "inputs": [
        {
          "internalType": "address",
          "name": "",
          "type": "address"
        },
        {
          "internalType": "uint256",
          "name": "",
          "type": "uint256"
        }
      ],
      "name": "userCreatedCollections",
      "outputs": [
        {
          "internalType": "uint256",
          "name": "",
          "type": "uint256"
        }
      ],
      "stateMutability": "view",
      "type": "function"
    },
    {
      "inputs": [
        {
          "internalType": "uint256",
          "name": "_collectionId",
          "type": "uint256"
        }
      ],
      "name": "withdrawCollectionOffer",
      "outputs": [],
      "stateMutability": "nonpayable",
      "type": "function"
    }
  ],
  "bytecode": "0x6080346100ca57601f61237438819003918201601f19168301916001600160401b038311848410176100cf578084926020946040528339810103126100ca57516001600160a01b0390818116908190036100ca5733156100b15760005460018060a01b0319903382821617600055604051933391167f8be0079c531659141344cd1fd0a4f28419497f9722a3daafe3b4186f6b6457e0600080a360018055600254161760025561228e90816100e68239f35b604051631e4fbdf760e01b815260006004820152602490fd5b600080fd5b634e487b7160e01b600052604160045260246000fdfe608080604052600436101561001357600080fd5b60003560e01c9081630ea4ce3214611a92575080631a3f4a8314611a19578063201decb9146119cc578063223043f21461197f5780632899be451461173e57806338931883146116425780634049037914611592578063406c8b471461115c5780635187a82d1461113e5780635c7fc04a14610ed95780636a7bdd9a14610d7e5780636e06fb7614610d34578063715018a614610cdb5780637c7f52f914610b855780638077e2ce14610b155780638da5cb5b14610aec5780638f63e06a146109515780639dcdbf15146108eb578063a33dc28a14610856578063d14e44c614610345578063d4e4d3dd14610287578063f2fde38b146101fe578063f53bcb5e146101a65763fdbda0ec1461012757600080fd5b346101a15760203660031901126101a157600435600052600660205260e0604060002080549060018060a01b03600182015416906002810154600382015460048301549160ff600660058601549501541694604051968752602087015260408601526060850152608084015260a0830152151560c0820152f35b600080fd5b346101a15760403660031901126101a1576101bf611b0a565b6001600160a01b03166000908152600960205260409020805460243591908210156101a1576020916101f091611c63565b90546040519160031b1c8152f35b346101a15760203660031901126101a157610217611b0a565b61021f61220c565b6001600160a01b0390811690811561026e57600054826001600160601b0360a01b821617600055167f8be0079c531659141344cd1fd0a4f28419497f9722a3daafe3b4186f6b6457e0600080a3005b604051631e4fbdf760e01b815260006004820152602490fd5b346101a15760203660031901126101a1576004356102a3611ea4565b508015801561033a575b61032857600052600660205260e0604060002060ff6006604051926102d184611cf9565b8054845260018060a01b036001820154166020850152600281015460408501526003810154606085015260048101546080850152600581015460a0850152015416151560c08201526103266040518092611c91565bf35b60405163afe0bed960e01b8152600490fd5b5060055481116102ad565b346101a15760803660031901126101a15760243567ffffffffffffffff81116101a157366023820112156101a15767ffffffffffffffff8160040135116101a157366024826004013560051b830101116101a1576044356001600160a01b03811690036101a157606435906001600160a01b03821682036101a1576103c8612062565b600435600052600660205260406000209060ff60068301541615610844576004356000526008602052604060002060018060a01b03604435166000526020526040600020916040519261041a84611cdc565b805484526001810154602085015260018060a01b0360028201541660408501526003810154606085015260048101549060808501918252600581015460a0860152600760068201549160c08701928352015460e086019160ff82161515835261048e60ff61010089019360081c1683611d37565b825115610832575142116107ee575050518260040135036107dc5760005b8260040135811061068d575060008080806127106104d36060890151600488015490611e29565b046104e28160608a0151611edc565b6001909601546001600160a01b0316828215610684575bf11561066f5760008080809381811561067b575b6001600160a01b03891690f11561066f578151600052600d602052600760406000200161010061ff00198254161790558151600052600760406000200160ff1981541690558151600080516020612239833981519152602060405160018152a26004356000526008602052604060002060018060a01b0360443516600052602052600060076040822082815582600182015582600282015582600382015582600482015582600582015582600682015501556105cd600435604435612085565b6105db604435600435612154565b6060825192015160405193606085528260040135606086015260018060fb1b038360040135116101a1577f181319c5e427bbfd61c4653d39507d1a129f50c5d490a9b35d4785369f6c4de291836004013560051b6024850160808801376044356001600160a01b039081166020880152604087019190915216936004803593013560051b810181900360800190a460018055005b6040513d6000823e3d90fd5b506108fc61050d565b506108fc6104f9565b6002546001600160a01b0316906106ac81600486013560248701612052565b6040516331a9108f60e11b815290356004820152602081602481865afa90811561066f5760009161079a575b506001600160a01b03878116911603610788576106fd81856004013560248701612052565b35823b156101a157604051632142170760e11b81526001600160a01b038881166004830152604480359091166024830152810191909152916000908390606490829084905af1801561066f57610758575b60019150016104ac565b67ffffffffffffffff82116107725760019160405261074e565b634e487b7160e01b600052604160045260246000fd5b6040516359dc379f60e01b8152600490fd5b90506020813d6020116107d4575b816107b560209383611d15565b810103126101a157516001600160a01b03811681036101a157876106d8565b3d91506107a8565b60405163f9656ec560e01b8152600490fd5b8591600260009252528051600052600d602052805160005251600080516020612239833981519152602060405160028152a2604051639cb1308760e01b8152600490fd5b604051634df22b3760e11b8152600490fd5b6040516322f1e75560e11b8152600490fd5b346101a1576020806003193601126101a157600435801580156108e0575b6103285760005260046020526040600020906040519081602084549182815201936000526020600020916000905b8282106108c9576108c5856108b981890382611d15565b60405191829182611b36565b0390f35b8354865294850194600193840193909101906108a2565b506005548111610874565b346101a1576109026108fc36611b72565b90611ee9565b6040516020916020820160208352815180915260206040840192019360005b82811061092e5784840385f35b9091928260e0826109426001948a51611c91565b01960191019492919094610921565b346101a15760603660031901126101a15760443560043567ffffffffffffffff8083116101a157366023840112156101a15782600401359081116101a15736602482850101116101a157816000526020926006845260406000209060ff60068301541615610844576003820191825460028201541115610ada57600101546001600160a01b039081163303610ac95785916024600060a4879460025416936040519889968795869363252ee1d560e11b855233600486015260808286015282608486015201848401378383828401015260243560448301528a6064830152601f801991011681010301925af191821561066f57600092610a9a575b50600181540190558160005260048352610a6a816040600020611e68565b604051918133917ffca9437e237ca408a74cca23e3078fd1f6c700960dac7f09f8c6cf5177aefe1a600080a48152f35b9091508381813d8311610ac2575b610ab28183611d15565b810103126101a157519084610a4c565b503d610aa8565b6040516282b42960e81b8152600490fd5b6040516335e6a0a160e11b8152600490fd5b346101a15760003660031901126101a1576000546040516001600160a01b039091168152602090f35b346101a157610b2336611b72565b816000526006602052604060002060ff600682015416156108445760018101546001600160a01b03163303610ac957817f955d8b6421b6147e5fab7f57b26651ada21217bc1b2de05f98b9092722bdbf769260056020930155604051908152a2005b346101a157610b9336611c49565b90918015610cc9578115610cb757610fa08311610ca5576020926006610c5f92610bbe600554611d43565b948560055560405193610bd085611cf9565b86855287850192338452604086019081526060860190600082526080870192835260a0870193845260c08701946001865289600052868b52604060002097518855600188019060018060a01b039051166001600160601b0360a01b82541617905551600287015551600386015551600485015551600584015551151591019060ff801983541691151516179055565b3360005260078252610c75816040600020611e68565b604051903330827f79720d1b4e0e66580d259a70358340090d2c8d236f72c70560f6a488d9760796600080a48152f35b60405163c2a2a95d60e01b8152600490fd5b60405163bd84c8ab60e01b8152600490fd5b60405163066f305360e21b8152600490fd5b346101a15760003660031901126101a157610cf461220c565b600080546001600160a01b0319811682556001600160a01b03167f8be0079c531659141344cd1fd0a4f28419497f9722a3daafe3b4186f6b6457e08280a3005b346101a15760403660031901126101a157610d4d611b0a565b6001600160a01b03166000908152600760205260409020805460243591908210156101a1576020916101f091611c63565b346101a1576020806003193601126101a15760043590610d9c612062565b816000526008815260406000203360005281526040600020916007830192835460ff81161561083257600060038301805496610100809461ffff1916179055558154600052600d845260076040600020019061ff0019825416179055805460005260076040600020019060ff19918281541690558054600052600060036040822001558460008115610ed0575b600080809381933390f11561066f577ffb6d89452bccc8e55e999fd254430d724419a34f968c660bd2765d43ece4c2ed91610e648433612085565b610e6e3385612154565b33600052600b855260406000208460005285526040600020818154169055600c8552604060002033600052855260406000209081541690555492836000805160206122398339815191528260405160018152a26040519485523394a460018055005b506108fc610e29565b346101a1576020806003193601126101a1576001600160a01b039081610efd611b0a565b168060005260098252604060002092604051808585829754938481520190600052856000209260005b8782821061112857505050610f3d92500385611d15565b60009160005b855181101561101a57610f568187611e15565b5160005260088086526040600020836000528652604060002090610fe2604051610f7f81611cdc565b835481526001840154898201528660028501541660408201526003840154606082015260048401546080820152600584015460a0820152610100600760068601549560c08401968752015460ff9060e0840195828216151587521c169101611d37565b511515908161100e575b50610ffa575b600101610f43565b92611006600191611d43565b939050610ff2565b90505142111587610fec565b50929161102690611dc5565b60009160005b865181101561111a5761103f8188611e15565b516000526008808652604060002087600052865260406000206040519161106583611cdc565b815483526001820154888401528460028301541660408401526003820154606084015260048201546080840152600582015460a08401526110cb600760068401549360c08601948552015460ff9060e0860193828216151585521c166101008501611d37565b511515908161110e575b506110e4575b5060010161102c565b84611107916110f66001949787611e15565b526111018186611e15565b50611d43565b93906110db565b905051421115896110d5565b604051806108c58582611bff565b855484526001958601958a955093019201610f26565b346101a15760003660031901126101a1576020600554604051908152f35b61116536611c49565b611170929192612062565b816000526006602052604060002060ff6006820154161561084457611199846005830154611e29565b3410611580578315908115611572575b506115605761a8c081108015611554575b6115425781600052600860205260406000203360005260205260406000206007810160ff8154166114f1575b5050806114e857506111fc62093a805b42611e5b565b90611208600354611d43565b918260035560405161121981611cdc565b8381528260208201523360408201523460608201528460808201524260a08201528160c0820152600160e08201526000610100820152826000526008602052604060002033600052602052604060002081518155602082015160018201556002810160018060a01b036040840151166001600160601b0360a01b825416179055606082015160038201556080820151600482015560a0820151600582015560c082015160068201556112e060e08301511515600783019060ff801983541691151516179055565b61010082015160038110156114d25760076112fb9201611e3c565b83600052600d6020526101006007604060002083518155602084015160018201556002810160018060a01b036040860151166001600160601b0360a01b825416179055606084015160038201556080840151600482015560a0840151600582015560c08401516006820155019161138460e08201511515849060ff801983541691151516179055565b015160038110156114d25761139891611e3c565b33600052600b60205260406000208260005260205260ff6040600020541615611491575b600c60205260406000203360005260205260ff6040600020541615611419575b60405193348552602085015260408401527fc1b37ccad7810f84cd9e8030e09140ae7cc1c8238337d46cd89fc42ecfde490660603394a460018055005b81600052600a6020526040600020805490600160401b821015610772578161144991600161146794018155611c63565b81546001600160a01b0360039290921b91821b19163390911b179055565b81600052600c6020526040600020336000526020526040600020600160ff198254161790556113dc565b3360005260096020526114a8826040600020611e68565b33600052600b6020526040600020826000526020526040600020600160ff198254161790556113bc565b634e487b7160e01b600052602160045260246000fd5b6111fc906111f6565b60008080806003860154818115611539575b3390f11561066f5761010061ffff1982541617905554600080516020612239833981519152602060405160018152a283806111e6565b506108fc611503565b6040516306c28ab960e01b8152600490fd5b5062093a8081116111ba565b6040516334a5980f60e01b8152600490fd5b6003915001548311846111a9565b6040516319147c9f60e21b8152600490fd5b346101a15760403660031901126101a1576101206115ae611b20565b6004356000526008602052604060002060018060a01b0380921660005260205261032660406000209182549260018101549160028201541660038201546004830154906005840154926007600686015495015495604051988952602089015260408801526060870152608086015260a085015260c084015260ff8116151560e084015260ff61010084019160081c16611b88565b346101a15760203660031901126101a15761165b611d80565b50600435600052600d602052604060002060405161167881611cdc565b815481526001820154602082015260018060a01b0360028301541660408201526003820154606082015260048201546080820152600582015460a0820152600760068301549260c08301938452015460e0820160ff8216151581526116e860ff61010085019360081c1683611d37565b82511561172c5761012093815115159081611721575b50611713575b50506103266040518092611b95565b600260009252528280611704565b9050514211856116fe565b604051635129cab160e11b8152600490fd5b346101a1576020806003193601126101a15760043580158015611974575b6103285780600052600a82526040600020916000916000928454935b848110611896575061178990611dc5565b9360009160005b8581106117a557604051806108c58982611bff565b8160005260088086526040600020906117be8386611c63565b91909260018060a01b03809454600394851b1c166000528852604060002091604051936117ea85611cdc565b8354855260018401548a8601526002840154166040850152820154606084015260048201546080840152600582015460a084015261184d600760068401549360c08601948552015460ff9060e0860193828216151585521c166101008501611d37565b511515908161188a575b50611866575b50600101611790565b8461188391611878600194978b611e15565b52611101818a611e15565b939061185d565b90505142111589611857565b82600052600880855260406000209061193c6118b2848a611c63565b9360018060a01b03809254600396871b1c166000528852604060002093604051916118dc83611cdc565b8554835260018601548a8401526002860154166040830152840154606082015260048401546080820152600584015460a0820152610100600760068601549560c08401968752015460ff9060e0840195828216151587521c169101611d37565b5115159081611968575b50611954575b600101611778565b90611960600191611d43565b91905061194c565b90505142111587611946565b50600554811161175c565b346101a15760403660031901126101a1576001600160a01b036119a0611b0a565b16600052600b6020526040600020602435600052602052602060ff604060002054166040519015158152f35b346101a15760403660031901126101a1576119e5611b20565b600435600052600c60205260406000209060018060a01b0316600052602052602060ff604060002054166040519015158152f35b346101a157611a2736611b72565b816000526006602052604060002060ff600682015416156108445760018101546001600160a01b03163303610ac957610fa08211610ca557817fd3ea012dd162cbd375b3e0f975eb51429b6c22dbcab9af97bcf0ee8fb1e111e89260046020930155604051908152a2005b346101a15760209060206003193601126101a1576001600160a01b03611ab6611b0a565b166000526007602052604060002091825480835260208301936000526020600020916000905b828210611af3576108c5856108b981890382611d15565b835486529485019460019384019390910190611adc565b600435906001600160a01b03821682036101a157565b602435906001600160a01b03821682036101a157565b602090602060408183019282815285518094520193019160005b828110611b5e575050505090565b835185529381019392810192600101611b50565b60409060031901126101a1576004359060243590565b9060038210156114d25752565b90611bfd91805182526020810151602083015260018060a01b036040820151166040830152606081015160608301526080810151608083015260a081015160a083015260c081015160c083015260e0810151151560e083015261010080910151910190611b88565b565b602090602060408183019282815285518094520193019160005b828110611c27575050505090565b909192938261012082611c3d6001948951611b95565b01950193929101611c19565b60609060031901126101a157600435906024359060443590565b8054821015611c7b5760005260206000200190600090565b634e487b7160e01b600052603260045260246000fd5b60c080918051845260018060a01b03602082015116602085015260408101516040850152606081015160608501526080810151608085015260a081015160a085015201511515910152565b610120810190811067ffffffffffffffff82111761077257604052565b60e0810190811067ffffffffffffffff82111761077257604052565b90601f8019910116810190811067ffffffffffffffff82111761077257604052565b60038210156114d25752565b6000198114611d525760010190565b634e487b7160e01b600052601160045260246000fd5b67ffffffffffffffff81116107725760051b60200190565b60405190611d8d82611cdc565b816101006000918281528260208201528260408201528260608201528260808201528260a08201528260c08201528260e08201520152565b90611dcf82611d68565b611ddc6040519182611d15565b8281528092611ded601f1991611d68565b019060005b828110611dfe57505050565b602090611e09611d80565b82828501015201611df2565b8051821015611c7b5760209160051b010190565b81810292918115918404141715611d5257565b9060038110156114d25761ff0082549160081b169061ff001916179055565b91908201809211611d5257565b90815491600160401b8310156107725782611e8b916001611bfd95018155611c63565b90919082549060031b91821b91600019901b1916179055565b60405190611eb182611cf9565b8160c06000918281528260208201528260408201528260608201528260808201528260a08201520152565b91908203918211611d5257565b9060059060055492831561202a5783811061201f57506000198301838111611d5257611f16908094611edc565b90818111156120175750905b611f2b82611d68565b92604090611f3c6040519586611d15565b838552601f19611f4b85611d68565b0160005b81811061200057505060005b848110611f6a57505050505090565b611f748183611e5b565b906001808301809311611d525760019260005260ff600660208181528760002090885194611fa186611cf9565b82548652878060a01b0390830154169085015260028101548885015260038101546060850152600481015460808501528881015460a0850152015416151560c0820152611fee8289611e15565b52611ff98188611e15565b5001611f5b565b60209061200b611ea4565b82828a01015201611f4f565b905090611f22565b611f16908094611edc565b505050506040516020810181811067ffffffffffffffff821117610772576040526000815290565b9190811015611c7b5760051b0190565b600260015414612073576002600155565b604051633ee5aeb560e01b8152600490fd5b6001600160a01b03166000908152600960205260408120909190825b81548082101561214d5783906120b78385611c63565b929054600393841b1c146120cf5750506001016120a1565b9293509390600019928381019081116121395790611e8b6120f36121009387611c63565b905490881b1c9186611c63565b825490811561212557508101926121178484611c63565b81939154921b1b1916905555565b634e487b7160e01b81526031600452602490fd5b634e487b7160e01b83526011600452602483fd5b5050505050565b906000918252600a60205260408220825b81548082101561214d576121798284611c63565b90546003926001600160a01b0392909190841b1c8216868316146121a257505050600101612165565b91959394509260001992909183810190811161213957906121d8856121ca6121f69489611c63565b9054908a1b1c169187611c63565b90919060018060a01b038084549260031b9316831b921b1916179055565b8354908115612125575001926121178484611c63565b6000546001600160a01b0316330361222057565b60405163118cdaa760e01b8152336004820152602490fdfe2e74881a6c74723c41779bc20d0aa57148f87d6cd03977e71379655e32e27116a264697066735822122016e871c84b6c2b19c19a184124bf7cf2986db80c584532f5d73e087e3a228e0c64736f6c63430008180033",
  "linkReferences": {},
  "deployedLinkReferences": {}
}