{
  "_format": "hh-sol-artifact-1",
  "contractName": "NFT",
  "sourceName": "contracts/NFT.sol",
  "abi": [
    {
      "inputs": [
        {
          "internalType": "string",
          "name": "name",
          "type": "string"
        },
        {
          "internalType": "string",
          "name": "symbol",
          "type": "string"
        },
        {
          "internalType": "address",
          "name": "_auctionContractAddress",
          "type": "address"
        },
        {
          "internalType": "address",
          "name": "_marketplaceContractAddress",
          "type": "address"
        }
      ],
      "stateMutability": "nonpayable",
      "type": "constructor"
    },
    {
      "inputs": [],
      "name": "ERC721EnumerableForbiddenBatchMint",
      "type": "error"
    },
    {
      "inputs": [
        {
          "internalType": "address",
          "name": "sender",
          "type": "address"
        },
        {
          "internalType": "uint256",
          "name": "tokenId",
          "type": "uint256"
        },
        {
          "internalType": "address",
          "name": "owner",
          "type": "address"
        }
      ],
      "name": "ERC721IncorrectOwner",
      "type": "error"
    },
    {
      "inputs": [
        {
          "internalType": "address",
          "name": "operator",
          "type": "address"
        },
        {
          "internalType": "uint256",
          "name": "tokenId",
          "type": "uint256"
        }
      ],
      "name": "ERC721InsufficientApproval",
      "type": "error"
    },
    {
      "inputs": [
        {
          "internalType": "address",
          "name": "approver",
          "type": "address"
        }
      ],
      "name": "ERC721InvalidApprover",
      "type": "error"
    },
    {
      "inputs": [
        {
          "internalType": "address",
          "name": "operator",
          "type": "address"
        }
      ],
      "name": "ERC721InvalidOperator",
      "type": "error"
    },
    {
      "inputs": [
        {
          "internalType": "address",
          "name": "owner",
          "type": "address"
        }
      ],
      "name": "ERC721InvalidOwner",
      "type": "error"
    },
    {
      "inputs": [
        {
          "internalType": "address",
          "name": "receiver",
          "type": "address"
        }
      ],
      "name": "ERC721InvalidReceiver",
      "type": "error"
    },
    {
      "inputs": [
        {
          "internalType": "address",
          "name": "sender",
          "type": "address"
        }
      ],
      "name": "ERC721InvalidSender",
      "type": "error"
    },
    {
      "inputs": [
        {
          "internalType": "uint256",
          "name": "tokenId",
          "type": "uint256"
        }
      ],
      "name": "ERC721NonexistentToken",
      "type": "error"
    },
    {
      "inputs": [
        {
          "internalType": "address",
          "name": "owner",
          "type": "address"
        },
        {
          "internalType": "uint256",
          "name": "index",
          "type": "uint256"
        }
      ],
      "name": "ERC721OutOfBoundsIndex",
      "type": "error"
    },
    {
      "inputs": [],
      "name": "EmptyTokenURI",
      "type": "error"
    },
    {
      "inputs": [],
      "name": "InvalidPrice",
      "type": "error"
    },
    {
      "inputs": [],
      "name": "InvalidRecipientAddress",
      "type": "error"
    },
    {
      "inputs": [],
      "name": "NotAuthorized",
      "type": "error"
    },
    {
      "inputs": [],
      "name": "NotTokenOwner",
      "type": "error"
    },
    {
      "inputs": [
        {
          "internalType": "address",
          "name": "owner",
          "type": "address"
        }
      ],
      "name": "OwnableInvalidOwner",
      "type": "error"
    },
    {
      "inputs": [
        {
          "internalType": "address",
          "name": "account",
          "type": "address"
        }
      ],
      "name": "OwnableUnauthorizedAccount",
      "type": "error"
    },
    {
      "inputs": [
        {
          "internalType": "uint256",
          "name": "tokenId",
          "type": "uint256"
        }
      ],
      "name": "TokenNotExists",
      "type": "error"
    },
    {
      "anonymous": false,
      "inputs": [
        {
          "indexed": true,
          "internalType": "address",
          "name": "owner",
          "type": "address"
        },
        {
          "indexed": true,
          "internalType": "address",
          "name": "approved",
          "type": "address"
        },
        {
          "indexed": true,
          "internalType": "uint256",
          "name": "tokenId",
          "type": "uint256"
        }
      ],
      "name": "Approval",
      "type": "event"
    },
    {
      "anonymous": false,
      "inputs": [
        {
          "indexed": true,
          "internalType": "address",
          "name": "owner",
          "type": "address"
        },
        {
          "indexed": true,
          "internalType": "address",
          "name": "operator",
          "type": "address"
        },
        {
          "indexed": false,
          "internalType": "bool",
          "name": "approved",
          "type": "bool"
        }
      ],
      "name": "ApprovalForAll",
      "type": "event"
    },
    {
      "anonymous": false,
      "inputs": [
        {
          "indexed": false,
          "internalType": "uint256",
          "name": "_fromTokenId",
          "type": "uint256"
        },
        {
          "indexed": false,
          "internalType": "uint256",
          "name": "_toTokenId",
          "type": "uint256"
        }
      ],
      "name": "BatchMetadataUpdate",
      "type": "event"
    },
    {
      "anonymous": false,
      "inputs": [
        {
          "indexed": true,
          "internalType": "address",
          "name": "seller",
          "type": "address"
        },
        {
          "indexed": true,
          "internalType": "uint256",
          "name": "tokenId",
          "type": "uint256"
        }
      ],
      "name": "ItemSold",
      "type": "event"
    },
    {
      "anonymous": false,
      "inputs": [
        {
          "indexed": false,
          "internalType": "uint256",
          "name": "_tokenId",
          "type": "uint256"
        }
      ],
      "name": "MetadataUpdate",
      "type": "event"
    },
    {
      "anonymous": false,
      "inputs": [
        {
          "indexed": true,
          "internalType": "uint256",
          "name": "tokenId",
          "type": "uint256"
        },
        {
          "indexed": true,
          "internalType": "address",
          "name": "creator",
          "type": "address"
        }
      ],
      "name": "NFTMinted",
      "type": "event"
    },
    {
      "anonymous": false,
      "inputs": [
        {
          "indexed": true,
          "internalType": "uint256",
          "name": "tokenId",
          "type": "uint256"
        },
        {
          "indexed": false,
          "internalType": "enum NFT.NFTStatus",
          "name": "newStatus",
          "type": "uint8"
        }
      ],
      "name": "NFTStatusChanged",
      "type": "event"
    },
    {
      "anonymous": false,
      "inputs": [
        {
          "indexed": true,
          "internalType": "address",
          "name": "previousOwner",
          "type": "address"
        },
        {
          "indexed": true,
          "internalType": "address",
          "name": "newOwner",
          "type": "address"
        }
      ],
      "name": "OwnershipTransferred",
      "type": "event"
    },
    {
      "anonymous": false,
      "inputs": [
        {
          "indexed": true,
          "internalType": "uint256",
          "name": "tokenId",
          "type": "uint256"
        },
        {
          "indexed": false,
          "internalType": "uint256",
          "name": "price",
          "type": "uint256"
        }
      ],
      "name": "PriceSet",
      "type": "event"
    },
    {
      "anonymous": false,
      "inputs": [
        {
          "indexed": true,
          "internalType": "address",
          "name": "from",
          "type": "address"
        },
        {
          "indexed": true,
          "internalType": "address",
          "name": "to",
          "type": "address"
        },
        {
          "indexed": true,
          "internalType": "uint256",
          "name": "tokenId",
          "type": "uint256"
        }
      ],
      "name": "Transfer",
      "type": "event"
    },
    {
      "inputs": [
        {
          "internalType": "address",
          "name": "to",
          "type": "address"
        },
        {
          "internalType": "uint256",
          "name": "tokenId",
          "type": "uint256"
        }
      ],
      "name": "approve",
      "outputs": [],
      "stateMutability": "nonpayable",
      "type": "function"
    },
    {
      "inputs": [],
      "name": "auctionContract",
      "outputs": [
        {
          "internalType": "address",
          "name": "",
          "type": "address"
        }
      ],
      "stateMutability": "view",
      "type": "function"
    },
    {
      "inputs": [
        {
          "internalType": "address",
          "name": "owner",
          "type": "address"
        }
      ],
      "name": "balanceOf",
      "outputs": [
        {
          "internalType": "uint256",
          "name": "",
          "type": "uint256"
        }
      ],
      "stateMutability": "view",
      "type": "function"
    },
    {
      "inputs": [
        {
          "internalType": "uint256",
          "name": "tokenId",
          "type": "uint256"
        }
      ],
      "name": "exists",
      "outputs": [
        {
          "internalType": "bool",
          "name": "",
          "type": "bool"
        }
      ],
      "stateMutability": "view",
      "type": "function"
    },
    {
      "inputs": [
        {
          "internalType": "uint256",
          "name": "tokenId",
          "type": "uint256"
        }
      ],
      "name": "getApproved",
      "outputs": [
        {
          "internalType": "address",
          "name": "",
          "type": "address"
        }
      ],
      "stateMutability": "view",
      "type": "function"
    },
    {
      "inputs": [
        {
          "internalType": "uint256",
          "name": "tokenId",
          "type": "uint256"
        }
      ],
      "name": "getCollection",
      "outputs": [
        {
          "internalType": "uint256",
          "name": "",
          "type": "uint256"
        }
      ],
      "stateMutability": "view",
      "type": "function"
    },
    {
      "inputs": [
        {
          "internalType": "address",
          "name": "creator",
          "type": "address"
        }
      ],
      "name": "getCreatedTokens",
      "outputs": [
        {
          "internalType": "uint256[]",
          "name": "",
          "type": "uint256[]"
        }
      ],
      "stateMutability": "view",
      "type": "function"
    },
    {
      "inputs": [
        {
          "internalType": "uint256",
          "name": "tokenId",
          "type": "uint256"
        }
      ],
      "name": "getCurrentOwner",
      "outputs": [
        {
          "internalType": "address",
          "name": "",
          "type": "address"
        }
      ],
      "stateMutability": "view",
      "type": "function"
    },
    {
      "inputs": [
        {
          "internalType": "address",
          "name": "seller",
          "type": "address"
        }
      ],
      "name": "getItemsSold",
      "outputs": [
        {
          "internalType": "uint256",
          "name": "",
          "type": "uint256"
        }
      ],
      "stateMutability": "view",
      "type": "function"
    },
    {
      "inputs": [
        {
          "internalType": "address",
          "name": "owner",
          "type": "address"
        }
      ],
      "name": "getOwnedTokens",
      "outputs": [
        {
          "internalType": "uint256[]",
          "name": "",
          "type": "uint256[]"
        }
      ],
      "stateMutability": "view",
      "type": "function"
    },
    {
      "inputs": [
        {
          "internalType": "uint256",
          "name": "tokenId",
          "type": "uint256"
        }
      ],
      "name": "getPrice",
      "outputs": [
        {
          "internalType": "uint256",
          "name": "",
          "type": "uint256"
        }
      ],
      "stateMutability": "view",
      "type": "function"
    },
    {
      "inputs": [
        {
          "internalType": "uint256",
          "name": "tokenId",
          "type": "uint256"
        }
      ],
      "name": "getTokenStatus",
      "outputs": [
        {
          "internalType": "enum NFT.NFTStatus",
          "name": "",
          "type": "uint8"
        }
      ],
      "stateMutability": "view",
      "type": "function"
    },
    {
      "inputs": [
        {
          "internalType": "address",
          "name": "owner",
          "type": "address"
        },
        {
          "internalType": "address",
          "name": "operator",
          "type": "address"
        }
      ],
      "name": "isApprovedForAll",
      "outputs": [
        {
          "internalType": "bool",
          "name": "",
          "type": "bool"
        }
      ],
      "stateMutability": "view",
      "type": "function"
    },
    {
      "inputs": [],
      "name": "marketplaceContract",
      "outputs": [
        {
          "internalType": "address",
          "name": "",
          "type": "address"
        }
      ],
      "stateMutability": "view",
      "type": "function"
    },
    {
      "inputs": [
        {
          "internalType": "address",
          "name": "to",
          "type": "address"
        },
        {
          "internalType": "string",
          "name": "theTokenURI",
          "type": "string"
        },
        {
          "internalType": "uint256",
          "name": "price",
          "type": "uint256"
        },
        {
          "internalType": "uint256",
          "name": "_collectionId",
          "type": "uint256"
        }
      ],
      "name": "mint",
      "outputs": [
        {
          "internalType": "uint256",
          "name": "",
          "type": "uint256"
        }
      ],
      "stateMutability": "nonpayable",
      "type": "function"
    },
    {
      "inputs": [],
      "name": "name",
      "outputs": [
        {
          "internalType": "string",
          "name": "",
          "type": "string"
        }
      ],
      "stateMutability": "view",
      "type": "function"
    },
    {
      "inputs": [],
      "name": "owner",
      "outputs": [
        {
          "internalType": "address",
          "name": "",
          "type": "address"
        }
      ],
      "stateMutability": "view",
      "type": "function"
    },
    {
      "inputs": [
        {
          "internalType": "uint256",
          "name": "tokenId",
          "type": "uint256"
        }
      ],
      "name": "ownerOf",
      "outputs": [
        {
          "internalType": "address",
          "name": "",
          "type": "address"
        }
      ],
      "stateMutability": "view",
      "type": "function"
    },
    {
      "inputs": [
        {
          "internalType": "address",
          "name": "seller",
          "type": "address"
        }
      ],
      "name": "recordSale",
      "outputs": [],
      "stateMutability": "nonpayable",
      "type": "function"
    },
    {
      "inputs": [],
      "name": "renounceOwnership",
      "outputs": [],
      "stateMutability": "nonpayable",
      "type": "function"
    },
    {
      "inputs": [
        {
          "internalType": "address",
          "name": "from",
          "type": "address"
        },
        {
          "internalType": "address",
          "name": "to",
          "type": "address"
        },
        {
          "internalType": "uint256",
          "name": "tokenId",
          "type": "uint256"
        }
      ],
      "name": "safeTransferFrom",
      "outputs": [],
      "stateMutability": "nonpayable",
      "type": "function"
    },
    {
      "inputs": [
        {
          "internalType": "address",
          "name": "from",
          "type": "address"
        },
        {
          "internalType": "address",
          "name": "to",
          "type": "address"
        },
        {
          "internalType": "uint256",
          "name": "tokenId",
          "type": "uint256"
        },
        {
          "internalType": "bytes",
          "name": "data",
          "type": "bytes"
        }
      ],
      "name": "safeTransferFrom",
      "outputs": [],
      "stateMutability": "nonpayable",
      "type": "function"
    },
    {
      "inputs": [
        {
          "internalType": "address",
          "name": "operator",
          "type": "address"
        },
        {
          "internalType": "bool",
          "name": "approved",
          "type": "bool"
        }
      ],
      "name": "setApprovalForAll",
      "outputs": [],
      "stateMutability": "nonpayable",
      "type": "function"
    },
    {
      "inputs": [
        {
          "internalType": "uint256",
          "name": "tokenId",
          "type": "uint256"
        },
        {
          "internalType": "enum NFT.NFTStatus",
          "name": "status",
          "type": "uint8"
        }
      ],
      "name": "setNFTStatus",
      "outputs": [],
      "stateMutability": "nonpayable",
      "type": "function"
    },
    {
      "inputs": [
        {
          "internalType": "bytes4",
          "name": "interfaceId",
          "type": "bytes4"
        }
      ],
      "name": "supportsInterface",
      "outputs": [
        {
          "internalType": "bool",
          "name": "",
          "type": "bool"
        }
      ],
      "stateMutability": "view",
      "type": "function"
    },
    {
      "inputs": [],
      "name": "symbol",
      "outputs": [
        {
          "internalType": "string",
          "name": "",
          "type": "string"
        }
      ],
      "stateMutability": "view",
      "type": "function"
    },
    {
      "inputs": [
        {
          "internalType": "uint256",
          "name": "index",
          "type": "uint256"
        }
      ],
      "name": "tokenByIndex",
      "outputs": [
        {
          "internalType": "uint256",
          "name": "",
          "type": "uint256"
        }
      ],
      "stateMutability": "view",
      "type": "function"
    },
    {
      "inputs": [
        {
          "internalType": "address",
          "name": "owner",
          "type": "address"
        },
        {
          "internalType": "uint256",
          "name": "index",
          "type": "uint256"
        }
      ],
      "name": "tokenOfOwnerByIndex",
      "outputs": [
        {
          "internalType": "uint256",
          "name": "",
          "type": "uint256"
        }
      ],
      "stateMutability": "view",
      "type": "function"
    },
    {
      "inputs": [
        {
          "internalType": "uint256",
          "name": "tokenId",
          "type": "uint256"
        }
      ],
      "name": "tokenURI",
      "outputs": [
        {
          "internalType": "string",
          "name": "",
          "type": "string"
        }
      ],
      "stateMutability": "view",
      "type": "function"
    },
    {
      "inputs": [],
      "name": "totalSupply",
      "outputs": [
        {
          "internalType": "uint256",
          "name": "",
          "type": "uint256"
        }
      ],
      "stateMutability": "view",
      "type": "function"
    },
    {
      "inputs": [
        {
          "internalType": "address",
          "name": "from",
          "type": "address"
        },
        {
          "internalType": "address",
          "name": "to",
          "type": "address"
        },
        {
          "internalType": "uint256",
          "name": "tokenId",
          "type": "uint256"
        }
      ],
      "name": "transferFrom",
      "outputs": [],
      "stateMutability": "nonpayable",
      "type": "function"
    },
    {
      "inputs": [
        {
          "internalType": "address",
          "name": "newOwner",
          "type": "address"
        }
      ],
      "name": "transferOwnership",
      "outputs": [],
      "stateMutability": "nonpayable",
      "type": "function"
    },
    {
      "inputs": [
        {
          "internalType": "address",
          "name": "_auctionContract",
          "type": "address"
        }
      ],
      "name": "updateAuctionContract",
      "outputs": [],
      "stateMutability": "nonpayable",
      "type": "function"
    },
    {
      "inputs": [
        {
          "internalType": "address",
          "name": "_marketplaceContractAddress",
          "type": "address"
        }
      ],
      "name": "updateMarketplaceContract",
      "outputs": [],
      "stateMutability": "nonpayable",
      "type": "function"
    }
  ],
  "bytecode": "0x608060405234620003ca57620021cd803803806200001d81620003cf565b928339810190608081830312620003ca5780516001600160401b039190828111620003ca578362000050918301620003f5565b6020938483015190848211620003ca576200006d918401620003f5565b926200008a6060620000826040860162000467565b940162000467565b93825190828211620003b4576000968754926001958685811c95168015620003a9575b8386101462000395578190601f9586811162000342575b508390868311600114620002de578b92620002d2575b5050600019600383901b1c191690861b1788555b8151938411620002be5784548581811c91168015620002b3575b828210146200029f57908184869594931162000248575b5080928411600114620001e057508792620001d4575b5050600019600383901b1c191690821b1790555b3315620001bb57600b549160018060a01b03809260018060a01b0319943386821617600b55604051967f8be0079c531659141344cd1fd0a4f28419497f9722a3daafe3b4186f6b6457e0843393169180a31683600d541617600d551690600e541617600e55611d5090816200047d8239f35b604051631e4fbdf760e01b815260048101849052602490fd5b01519050388062000135565b9190859450601f198416858a52838a20938a905b8282106200022e575050841162000214575b505050811b01905562000149565b015160001960f88460031b161c1916905538808062000206565b8484015186558897909501949384019390810190620001f4565b90919293508589528189208480870160051c82019284881062000295575b9187968992969594930160051c01915b828110620002865750506200011f565b8b815587965088910162000276565b9250819262000266565b634e487b7160e01b89526022600452602489fd5b90607f169062000108565b634e487b7160e01b88526041600452602488fd5b015190503880620000da565b8b8052848c208994509190601f1984168d5b878282106200032b575050841162000311575b505050811b018855620000ee565b015160001960f88460031b161c1916905538808062000303565b8385015186558c97909501949384019301620002f0565b9091508a8052838b208680850160051c8201928686106200038b575b918a91869594930160051c01915b8281106200037c575050620000c4565b8d81558594508a91016200036c565b925081926200035e565b634e487b7160e01b8a52602260045260248afd5b94607f1694620000ad565b634e487b7160e01b600052604160045260246000fd5b600080fd5b6040519190601f01601f191682016001600160401b03811183821017620003b457604052565b919080601f84011215620003ca5782516001600160401b038111620003b4576020906200042b601f8201601f19168301620003cf565b92818452828287010111620003ca5760005b8181106200045357508260009394955001015290565b85810183015184820184015282016200043d565b51906001600160a01b0382168203620003ca5756fe608080604052600436101561001357600080fd5b60003560e01c90816301ffc9a7146115065750806306fdde031461145b578063081812fc1461141d578063095ea7b3146113365780630ab8afac1461130d578063121669f1146112ca57806318160ddd146112ac57806323b872dd146112955780632f745c591461126e57806342842e0e146112405780634a5dc3aa14610bc65780634f558e7914610b8b5780634f6ccce714610b355780635a1f3c2814610ae95780636352211e14610acb57806370a0823114610aa0578063715018a614610a435780637ace341b146109dd5780638da5cb5b146109b45780638f07c2b41461095a57806395d89b4114610877578063a22cb465146107d2578063a25440a7146106bd578063a752998e14610683578063b88d4fde14610616578063c6f4a37f1461058f578063c87b56dd146104a0578063d1bb5cf114610477578063d3398854146103ba578063d9d6165514610310578063e7572230146102c1578063e985e9c51461026b578063f2fde38b146101dd5763f49a52aa1461019557600080fd5b346101d85760203660031901126101d8576101ae6115e5565b6101b6611ba6565b600e80546001600160a01b0319166001600160a01b0392909216919091179055005b600080fd5b346101d85760203660031901126101d8576101f66115e5565b6101fe611ba6565b6001600160a01b0390811690811561025257600b54826bffffffffffffffffffffffff60a01b821617600b55167f8be0079c531659141344cd1fd0a4f28419497f9722a3daafe3b4186f6b6457e0600080a3005b604051631e4fbdf760e01b815260006004820152602490fd5b346101d85760403660031901126101d8576102846115e5565b61028c6115fb565b9060018060a01b03809116600052600560205260406000209116600052602052602060ff604060002054166040519015158152f35b346101d85760203660031901126101d8576004356000818152600260205260409020546102f8906001600160a01b03161515611b0e565b60005260116020526020604060002054604051908152f35b346101d8576020806003193601126101d85761032a6115e5565b9061033482611ad5565b9061033e82611b53565b9261034c6040519485611675565b828452601f1961035b84611b53565b0136602086013760005b83811061037e576040518061037a87826116ea565b0390f35b61038881836119ef565b9085518110156103a457600191848260051b8801015201610365565b634e487b7160e01b600052603260045260246000fd5b346101d85760203660031901126101d8576103d36115e5565b600d546001600160a01b03919082163314801561046a575b1561042f571680600052601060205260406000209060018254018092557fc8edef1fc414675e55c5a6ea7d9d6547df463b23dbdfc36ecaad361408c0894c600080a3005b60405162461bcd60e51b81526020600482015260136024820152721391950e88139bdd08185d5d1a1bdc9a5e9959606a1b6044820152606490fd5b5081600e541633146103eb565b346101d85760003660031901126101d857600e546040516001600160a01b039091168152602090f35b346101d8576020806003193601126101d8576004356104be81611b6b565b50600052600a81526040600020906040519182600082546104de81611726565b938484526001918660018216918260001461056d57505060011461052e575b505061050b92500383611675565b600060405161051981611659565b5261037a6040519282849384528301906115a5565b85925060005281600020906000915b85831061055557505061050b935082010185806104fd565b8054838901850152879450869390920191810161053d565b925093505061050b94915060ff191682840152151560051b82010185806104fd565b346101d8576020806003193601126101d8576001600160a01b036105b16115e5565b16600052600f6020526040600020906040519081602084549182815201936000526020600020916000905b8282106105ff5761037a856105f381890382611675565b604051918291826116ea565b8354865294850194600193840193909101906105dc565b346101d85760803660031901126101d85761062f6115e5565b6106376115fb565b906044356064359267ffffffffffffffff84116101d857366023850112156101d8576106706106819436906024816004013591016116b3565b9261067c838383611760565b611bd2565b005b346101d85760203660031901126101d8576001600160a01b036106a46115e5565b1660005260106020526020604060002054604051908152f35b346101d85760403660031901126101d85760043560243560048110156101d8576000828152600260205260409020546001600160a01b0316156107b9576001600160a01b038061070c84611b6b565b1633141590816107a9575b81610799575b8161078a575b50610778576107737f2dd75f2ed42fb5a32822ff3dbf55085219f4f8bf82af773032d494142ce4a54391836000526011602052610767816002604060002001611a4f565b60405191829182611646565b0390a2005b60405163ea8e4eb560e01b8152600490fd5b9050600e541633141583610723565b809150600d54163314159061071d565b809150600b541633141590610717565b604051630f76b55560e11b815260048101839052602490fd5b346101d85760403660031901126101d8576107eb6115e5565b602435908115158092036101d8576001600160a01b031690811561085e57336000526005602052604060002082600052602052604060002060ff1981541660ff83161790556040519081527f17307eab39ab6107e8899845ad3d59bd9653f200f220920489ca2b5937696c3160203392a3005b604051630b61174360e31b815260048101839052602490fd5b346101d85760003660031901126101d85760405160006001826001549261089d84611726565b928383526020948560018216918260001461093a5750506001146108dd575b506108c992500383611675565b61037a6040519282849384528301906115a5565b84915060016000527fb10e2d527612073b26eecdfd717e6a320cf44b4afac2b0732d9fcbe2b7fa0cf6906000915b8583106109225750506108c99350820101856108bc565b8054838901850152879450869390920191810161090b565b60ff1916858201526108c995151560051b85010192508791506108bc9050565b346101d85760203660031901126101d857600435600081815260026020526040902054610991906001600160a01b03161515611b0e565b600052601160205261037a60ff6002604060002001541660405191829182611646565b346101d85760003660031901126101d857600b546040516001600160a01b039091168152602090f35b346101d85760203660031901126101d8576004356000818152600260205260409020546001600160a01b031615610a2b57610a19602091611b6b565b6040516001600160a01b039091168152f35b60249060405190630f76b55560e11b82526004820152fd5b346101d85760003660031901126101d857610a5c611ba6565b600b80546001600160a01b031981169091556000906001600160a01b03167f8be0079c531659141344cd1fd0a4f28419497f9722a3daafe3b4186f6b6457e08280a3005b346101d85760203660031901126101d8576020610ac3610abe6115e5565b611ad5565b604051908152f35b346101d85760203660031901126101d8576020610a19600435611b6b565b346101d85760203660031901126101d8576004356000818152600260205260409020546001600160a01b031615610a2b5760005260116020526020600160406000200154604051908152f35b346101d85760203660031901126101d857600435600854811015610b6c57610b5e602091611a67565b90546040519160031b1c8152f35b6044906040519063295f44f760e21b8252600060048301526024820152fd5b346101d85760203660031901126101d8576004356000908152600260209081526040909120546001600160a01b031615156040519015158152f35b346101d85760803660031901126101d857610bdf6115e5565b67ffffffffffffffff602435116101d8573660236024350112156101d85767ffffffffffffffff60243560040135116101d85736602480356004013581350101116101d8576001600160a01b03908082161561122e57602435600401351561121c576044351561120b576001600c540180600c55604051610c5f81611659565b60008152816000526002602052836040600020541680159081156111d4575b858516600052600360205260406000206001815401905583600052600260205260406000208686166bffffffffffffffffffffffff60a01b82541617905583868616827fddf252ad1be2c89b69c2b068fc378daa952ba7f163c4a11628f55a4df523b3ef600080a4811561114b57600854846000526009602052604060002055610d0784611a9e565b858516036110ee575b156110d557823b610faa575b509091610d34366024356004013560248035016116b3565b82600052600a60205260406000209080519067ffffffffffffffff8211610eba578190610d618454611726565b601f8111610f57575b50602090601f8311600114610ef157600092610ee6575b50508160011b916000199060031b1c19161790555b7ff8e1a15aba9398e019f0b49df1a4fde98ee17ae345cb5f6b5e2c27f5033e8ce76020604051848152a16040516060810181811067ffffffffffffffff821117610eba576040526044358152602081016064358152604082019060008252846000526011602052604060002092518355516001830155516004811015610ed0576002610e229201611a4f565b808316600052600f60205260406000208054600160401b811015610eba57600181018083558110156103a45760209484938487937fa0f1665b7b659537b52deec61ea64d134a3bccda74c7f4e79f2246e7a8187a8a956000528460002001556040519116847f0176f203df400d7bd5f1b1c9ef36c16709bf3b5d9fd35f000a6bae32393f66c3600080a36044358152a2604051908152f35b634e487b7160e01b600052604160045260246000fd5b634e487b7160e01b600052602160045260246000fd5b015190508680610d81565b6000858152602081209350601f198516905b818110610f3f5750908460019594939210610f26575b505050811b019055610d96565b015160001960f88460031b161c19169055868080610f19565b92936020600181928786015181550195019301610f03565b909150836000526020600020601f840160051c81019160208510610fa0575b90601f859493920160051c01905b818110610f915750610d6a565b60008155849350600101610f84565b9091508190610f76565b60405160208180610fe4630a85bd0160e11b95868352336004840152600060248401528760448401526080606484015260848301906115a5565b038160008989165af160009181611090575b5061105b575050503d600014611053573d9161101183611697565b9261101f6040519485611675565b83523d6000602085013e5b8251928361104c57604051633250574960e11b81528284166004820152602490fd5b8390602001fd5b60609161102a565b929391926001600160e01b0319160361107657919083610d1c565b604051633250574960e11b81529083166004820152602490fd5b9091506020813d6020116110cd575b816110ac60209383611675565b810103126101d857516001600160e01b0319811681036101d8579086610ff6565b3d915061109f565b6040516339e3563760e11b815260006004820152602490fd5b6110f784611ad5565b600019810190811161113557858516600052600660205260406000208160005260205283604060002055836000526007602052604060002055610d10565b634e487b7160e01b600052601160045260246000fd5b8486168114610d075761115d81611ad5565b8460005260076020526040600020548181036111a1575b50846000526000604081205581600052600660205260406000209060005260205260006040812055610d07565b60008381526006602090815260408083208584528252808320548484528184208190558352600790915290205587611174565b600084815260046020526040902080546001600160a01b031916905580600052600360205260406000206000198154019055610c7e565b60405162bfc92160e01b8152600490fd5b6040516317314b6160e01b8152600490fd5b60405163226ccff560e11b8152600490fd5b346101d85761068161125136611611565b906040519261125f84611659565b6000845261067c838383611760565b346101d85760403660031901126101d8576020610ac361128c6115e5565b602435906119ef565b346101d8576106816112a636611611565b91611760565b346101d85760003660031901126101d8576020600854604051908152f35b346101d85760203660031901126101d8576112e36115e5565b6112eb611ba6565b600d80546001600160a01b0319166001600160a01b0392909216919091179055005b346101d85760003660031901126101d857600d546040516001600160a01b039091168152602090f35b346101d85760403660031901126101d85761134f6115e5565b60243561135b81611b6b565b3315158061140a575b806113dd575b6113c5576001600160a01b039283169282918491167f8c5be1e5ebec7d5bd14f71427d1e84f3dd0314c0f7b2291e5b200ac8c7c3b925600080a4600090815260046020526040902080546001600160a01b0319169091179055005b60405163a9fbf51f60e01b8152336004820152602490fd5b5060018060a01b038116600052600560205260406000203360005260205260ff604060002054161561136a565b506001600160a01b038116331415611364565b346101d85760203660031901126101d85760043561143a81611b6b565b506000526004602052602060018060a01b0360406000205416604051908152f35b346101d85760003660031901126101d85760405160008054908261147e83611726565b918282526020936001908560018216918260001461093a5750506001146114ac57506108c992500383611675565b6000808052859250907f290decd9548b62a8d60345a988386fc84ba6bc95484008f6362f93160ef3e5635b8583106114ee5750506108c99350820101856108bc565b805483890185015287945086939092019181016114d7565b346101d85760203660031901126101d8576004359063ffffffff60e01b82168092036101d857602091632483248360e11b8114908115611548575b5015158152f35b63780e9d6360e01b811491508115611562575b5083611541565b6380ac58cd60e01b811491508115611594575b8115611583575b508361155b565b6301ffc9a760e01b1490508361157c565b635b5e139f60e01b81149150611575565b919082519283825260005b8481106115d1575050826000602080949584010152601f8019910116010190565b6020818301810151848301820152016115b0565b600435906001600160a01b03821682036101d857565b602435906001600160a01b03821682036101d857565b60609060031901126101d8576001600160a01b039060043582811681036101d8579160243590811681036101d8579060443590565b919060208301926004821015610ed05752565b6020810190811067ffffffffffffffff821117610eba57604052565b90601f8019910116810190811067ffffffffffffffff821117610eba57604052565b67ffffffffffffffff8111610eba57601f01601f191660200190565b9291926116bf82611697565b916116cd6040519384611675565b8294818452818301116101d8578281602093846000960137010152565b602090602060408183019282815285518094520193019160005b828110611712575050505090565b835185529381019392810192600101611704565b90600182811c92168015611756575b602083101461174057565b634e487b7160e01b600052602260045260246000fd5b91607f1691611735565b6001600160a01b03828116939184156119d657600094838652602095600287526040968488832054169633151580611948575b5087158015611915575b84845260038352898420805460010190558784526002835289842080546001600160a01b0319168617905587858a7fddf252ad1be2c89b69c2b068fc378daa952ba7f163c4a11628f55a4df523b3ef8780a41561189957600854878452600983528984205561180b87611a9e565b838803611847575b5050505016928383036118265750505050565b6064945051926364283d7b60e01b8452600484015260248301526044820152fd5b61185090611ad5565b6000198101939084116118855782916007918a9452600681528383208584528152878484205587835252205538808080611813565b634e487b7160e01b83526011600452602483fd5b87841461180b576118a988611ad5565b87845260078352898420548181036118de575b50878452838a812055888452600683528984209084528252828981205561180b565b898552600684528a852082865284528a8520548a8652600685528b86208287528552808c8720558552600784528a852055386118bc565b600088815260046020526040902080546001600160a01b031916905588845260038352898420805460001901905561179d565b80611995575b156119595738611793565b888789611976576024915190637e27328960e01b82526004820152fd5b905163177e802f60e01b81523360048201526024810191909152604490fd5b5033881480156119ba575b8061194e57508683526004825233868a852054161461194e565b5087835260058252888320338452825260ff89842054166119a0565b604051633250574960e11b815260006004820152602490fd5b6119f881611ad5565b821015611a245760018060a01b0316600052600660205260406000209060005260205260406000205490565b60405163295f44f760e21b81526001600160a01b039190911660048201526024810191909152604490fd5b906004811015610ed05760ff80198354169116179055565b6008548110156103a45760086000527ff3f7a9fe364faab93b216da50a3214154f22a0a2b415b23a84c8169e8b636ee30190600090565b600854600160401b811015610eba57806001611abd9201600855611a67565b819291549060031b91821b91600019901b1916179055565b6001600160a01b03168015611af557600052600360205260406000205490565b6040516322718ad960e21b815260006004820152602490fd5b15611b1557565b60405162461bcd60e51b815260206004820152601660248201527527232a1d102737b732bc34b9ba32b73a103a37b5b2b760511b6044820152606490fd5b67ffffffffffffffff8111610eba5760051b60200190565b6000818152600260205260409020546001600160a01b0316908115611b8e575090565b60249060405190637e27328960e01b82526004820152fd5b600b546001600160a01b03163303611bba57565b60405163118cdaa760e01b8152336004820152602490fd5b813b611bdf575b50505050565b604051630a85bd0160e11b8082523360048301526001600160a01b03928316602483015260448201949094526080606482015260209592909116939092908390611c2d9060848301906115a5565b039285816000958187895af1849181611cd6575b50611ca1575050503d600014611c99573d611c5b81611697565b90611c696040519283611675565b81528091843d92013e5b80519283611c9457604051633250574960e11b815260048101849052602490fd5b019050fd5b506060611c73565b919450915063ffffffff60e01b1603611cbe575038808080611bd9565b60249060405190633250574960e11b82526004820152fd5b9091508681813d8311611d13575b611cee8183611675565b81010312611d0f57516001600160e01b031981168103611d0f579038611c41565b8480fd5b503d611ce456fea2646970667358221220eddd1f2a65412b235cfa9affb168eb66328ae767ba54e100307bd4a5dd9ccc4964736f6c63430008180033",
  "linkReferences": {},
  "deployedLinkReferences": {}
}