{
  "_format": "hh-sol-artifact-1",
  "contractName": "NFTAuction",
  "sourceName": "contracts/NFTAuction.sol",
  "abi": [
    {
      "inputs": [
        {
          "internalType": "address",
          "name": "_nftContractAddress",
          "type": "address"
        },
        {
          "internalType": "address",
          "name": "_marketplaceAddress",
          "type": "address"
        }
      ],
      "stateMutability": "nonpayable",
      "type": "constructor"
    },
    {
      "inputs": [],
      "name": "AuctionExpired",
      "type": "error"
    },
    {
      "inputs": [],
      "name": "AuctionNotFound",
      "type": "error"
    },
    {
      "inputs": [],
      "name": "BelowStartingPrice",
      "type": "error"
    },
    {
      "inputs": [],
      "name": "BidTooLow",
      "type": "error"
    },
    {
      "inputs": [],
      "name": "BidderRefundFailed",
      "type": "error"
    },
    {
      "inputs": [],
      "name": "BidsAlreadyPlaced",
      "type": "error"
    },
    {
      "inputs": [],
      "name": "ContractNotApproved",
      "type": "error"
    },
    {
      "inputs": [],
      "name": "HighestBidderCannotWithdraw",
      "type": "error"
    },
    {
      "inputs": [],
      "name": "InvalidAuctionState",
      "type": "error"
    },
    {
      "inputs": [],
      "name": "InvalidDuration",
      "type": "error"
    },
    {
      "inputs": [],
      "name": "InvalidReservePrice",
      "type": "error"
    },
    {
      "inputs": [],
      "name": "InvalidStartingPrice",
      "type": "error"
    },
    {
      "inputs": [],
      "name": "NoBidsFound",
      "type": "error"
    },
    {
      "inputs": [],
      "name": "NotMarketplace",
      "type": "error"
    },
    {
      "inputs": [],
      "name": "NotSeller",
      "type": "error"
    },
    {
      "inputs": [],
      "name": "NotTokenOwner",
      "type": "error"
    },
    {
      "inputs": [
        {
          "internalType": "address",
          "name": "owner",
          "type": "address"
        }
      ],
      "name": "OwnableInvalidOwner",
      "type": "error"
    },
    {
      "inputs": [
        {
          "internalType": "address",
          "name": "account",
          "type": "address"
        }
      ],
      "name": "OwnableUnauthorizedAccount",
      "type": "error"
    },
    {
      "inputs": [],
      "name": "ReentrancyGuardReentrantCall",
      "type": "error"
    },
    {
      "inputs": [],
      "name": "TokenAlreadyHasAuction",
      "type": "error"
    },
    {
      "inputs": [],
      "name": "TokenNotAvailable",
      "type": "error"
    },
    {
      "anonymous": false,
      "inputs": [
        {
          "indexed": true,
          "internalType": "uint256",
          "name": "auctionId",
          "type": "uint256"
        }
      ],
      "name": "AuctionCancelled",
      "type": "event"
    },
    {
      "anonymous": false,
      "inputs": [
        {
          "indexed": true,
          "internalType": "uint256",
          "name": "auctionId",
          "type": "uint256"
        }
      ],
      "name": "AuctionCancelledForDirectSale",
      "type": "event"
    },
    {
      "anonymous": false,
      "inputs": [
        {
          "indexed": true,
          "internalType": "uint256",
          "name": "auctionId",
          "type": "uint256"
        },
        {
          "indexed": true,
          "internalType": "address",
          "name": "seller",
          "type": "address"
        },
        {
          "indexed": true,
          "internalType": "uint256",
          "name": "tokenId",
          "type": "uint256"
        },
        {
          "indexed": false,
          "internalType": "uint256",
          "name": "startingPrice",
          "type": "uint256"
        },
        {
          "indexed": false,
          "internalType": "uint256",
          "name": "reservePrice",
          "type": "uint256"
        },
        {
          "indexed": false,
          "internalType": "uint256",
          "name": "startTime",
          "type": "uint256"
        },
        {
          "indexed": false,
          "internalType": "uint256",
          "name": "endTime",
          "type": "uint256"
        }
      ],
      "name": "AuctionCreated",
      "type": "event"
    },
    {
      "anonymous": false,
      "inputs": [
        {
          "indexed": true,
          "internalType": "uint256",
          "name": "auctionId",
          "type": "uint256"
        },
        {
          "indexed": true,
          "internalType": "address",
          "name": "winner",
          "type": "address"
        },
        {
          "indexed": false,
          "internalType": "uint256",
          "name": "amount",
          "type": "uint256"
        }
      ],
      "name": "AuctionEnded",
      "type": "event"
    },
    {
      "anonymous": false,
      "inputs": [
        {
          "indexed": true,
          "internalType": "uint256",
          "name": "auctionId",
          "type": "uint256"
        },
        {
          "indexed": false,
          "internalType": "uint256",
          "name": "newEndTime",
          "type": "uint256"
        }
      ],
      "name": "AuctionExtended",
      "type": "event"
    },
    {
      "anonymous": false,
      "inputs": [
        {
          "indexed": true,
          "internalType": "uint256",
          "name": "auctionId",
          "type": "uint256"
        },
        {
          "indexed": true,
          "internalType": "address",
          "name": "bidder",
          "type": "address"
        },
        {
          "indexed": false,
          "internalType": "uint256",
          "name": "amount",
          "type": "uint256"
        }
      ],
      "name": "BidPlaced",
      "type": "event"
    },
    {
      "anonymous": false,
      "inputs": [
        {
          "indexed": true,
          "internalType": "uint256",
          "name": "auctionId",
          "type": "uint256"
        },
        {
          "indexed": true,
          "internalType": "address",
          "name": "bidder",
          "type": "address"
        },
        {
          "indexed": false,
          "internalType": "uint256",
          "name": "amount",
          "type": "uint256"
        }
      ],
      "name": "BidWithdrawn",
      "type": "event"
    },
    {
      "anonymous": false,
      "inputs": [
        {
          "indexed": true,
          "internalType": "address",
          "name": "previousOwner",
          "type": "address"
        },
        {
          "indexed": true,
          "internalType": "address",
          "name": "newOwner",
          "type": "address"
        }
      ],
      "name": "OwnershipTransferred",
      "type": "event"
    },
    {
      "anonymous": false,
      "inputs": [
        {
          "indexed": true,
          "internalType": "uint256",
          "name": "auctionId",
          "type": "uint256"
        },
        {
          "indexed": false,
          "internalType": "uint256",
          "name": "newReservePrice",
          "type": "uint256"
        }
      ],
      "name": "ReservePriceUpdated",
      "type": "event"
    },
    {
      "inputs": [],
      "name": "MAXIMUM_AUCTION_DURATION",
      "outputs": [
        {
          "internalType": "uint256",
          "name": "",
          "type": "uint256"
        }
      ],
      "stateMutability": "view",
      "type": "function"
    },
    {
      "inputs": [],
      "name": "MINIMUM_AUCTION_DURATION",
      "outputs": [
        {
          "internalType": "uint256",
          "name": "",
          "type": "uint256"
        }
      ],
      "stateMutability": "view",
      "type": "function"
    },
    {
      "inputs": [
        {
          "internalType": "uint256",
          "name": "",
          "type": "uint256"
        },
        {
          "internalType": "uint256",
          "name": "",
          "type": "uint256"
        }
      ],
      "name": "auctionBids",
      "outputs": [
        {
          "internalType": "address",
          "name": "bidder",
          "type": "address"
        },
        {
          "internalType": "uint256",
          "name": "amount",
          "type": "uint256"
        },
        {
          "internalType": "uint256",
          "name": "timestamp",
          "type": "uint256"
        }
      ],
      "stateMutability": "view",
      "type": "function"
    },
    {
      "inputs": [],
      "name": "auctionCount",
      "outputs": [
        {
          "internalType": "uint256",
          "name": "",
          "type": "uint256"
        }
      ],
      "stateMutability": "view",
      "type": "function"
    },
    {
      "inputs": [
        {
          "internalType": "uint256",
          "name": "",
          "type": "uint256"
        }
      ],
      "name": "auctions",
      "outputs": [
        {
          "internalType": "address",
          "name": "seller",
          "type": "address"
        },
        {
          "internalType": "uint256",
          "name": "tokenId",
          "type": "uint256"
        },
        {
          "internalType": "uint256",
          "name": "startingPrice",
          "type": "uint256"
        },
        {
          "internalType": "uint256",
          "name": "reservePrice",
          "type": "uint256"
        },
        {
          "internalType": "uint256",
          "name": "startTime",
          "type": "uint256"
        },
        {
          "internalType": "uint256",
          "name": "endTime",
          "type": "uint256"
        },
        {
          "internalType": "address",
          "name": "highestBidder",
          "type": "address"
        },
        {
          "internalType": "uint256",
          "name": "highestBid",
          "type": "uint256"
        },
        {
          "internalType": "bool",
          "name": "ended",
          "type": "bool"
        },
        {
          "internalType": "bool",
          "name": "active",
          "type": "bool"
        }
      ],
      "stateMutability": "view",
      "type": "function"
    },
    {
      "inputs": [
        {
          "internalType": "address",
          "name": "_sender",
          "type": "address"
        },
        {
          "internalType": "uint256",
          "name": "_auctionId",
          "type": "uint256"
        }
      ],
      "name": "cancelAuction",
      "outputs": [],
      "stateMutability": "nonpayable",
      "type": "function"
    },
    {
      "inputs": [
        {
          "internalType": "uint256",
          "name": "_auctionId",
          "type": "uint256"
        }
      ],
      "name": "cancelAuctionForDirectSale",
      "outputs": [],
      "stateMutability": "nonpayable",
      "type": "function"
    },
    {
      "inputs": [
        {
          "internalType": "address",
          "name": "_sender",
          "type": "address"
        },
        {
          "internalType": "uint256",
          "name": "_tokenId",
          "type": "uint256"
        },
        {
          "internalType": "uint256",
          "name": "_startingPrice",
          "type": "uint256"
        },
        {
          "internalType": "uint256",
          "name": "_reservePrice",
          "type": "uint256"
        },
        {
          "internalType": "uint256",
          "name": "_duration",
          "type": "uint256"
        }
      ],
      "name": "createAuction",
      "outputs": [
        {
          "internalType": "uint256",
          "name": "",
          "type": "uint256"
        }
      ],
      "stateMutability": "nonpayable",
      "type": "function"
    },
    {
      "inputs": [
        {
          "internalType": "uint256",
          "name": "_auctionId",
          "type": "uint256"
        }
      ],
      "name": "endAuction",
      "outputs": [
        {
          "internalType": "bool",
          "name": "",
          "type": "bool"
        }
      ],
      "stateMutability": "nonpayable",
      "type": "function"
    },
    {
      "inputs": [],
      "name": "getActiveAuctions",
      "outputs": [
        {
          "internalType": "uint256[]",
          "name": "",
          "type": "uint256[]"
        }
      ],
      "stateMutability": "view",
      "type": "function"
    },
    {
      "inputs": [
        {
          "internalType": "uint256",
          "name": "_auctionId",
          "type": "uint256"
        }
      ],
      "name": "getAuction",
      "outputs": [
        {
          "internalType": "address",
          "name": "seller",
          "type": "address"
        },
        {
          "internalType": "uint256",
          "name": "tokenId",
          "type": "uint256"
        },
        {
          "internalType": "uint256",
          "name": "startingPrice",
          "type": "uint256"
        },
        {
          "internalType": "uint256",
          "name": "reservePrice",
          "type": "uint256"
        },
        {
          "internalType": "uint256",
          "name": "startTime",
          "type": "uint256"
        },
        {
          "internalType": "uint256",
          "name": "endTime",
          "type": "uint256"
        },
        {
          "internalType": "address",
          "name": "highestBidder",
          "type": "address"
        },
        {
          "internalType": "uint256",
          "name": "highestBid",
          "type": "uint256"
        },
        {
          "internalType": "bool",
          "name": "ended",
          "type": "bool"
        },
        {
          "internalType": "bool",
          "name": "active",
          "type": "bool"
        }
      ],
      "stateMutability": "view",
      "type": "function"
    },
    {
      "inputs": [
        {
          "internalType": "uint256",
          "name": "_tokenId",
          "type": "uint256"
        }
      ],
      "name": "getTokenBids",
      "outputs": [
        {
          "components": [
            {
              "internalType": "address",
              "name": "bidder",
              "type": "address"
            },
            {
              "internalType": "uint256",
              "name": "amount",
              "type": "uint256"
            },
            {
              "internalType": "uint256",
              "name": "timestamp",
              "type": "uint256"
            }
          ],
          "internalType": "struct NFTAuction.Bid[]",
          "name": "",
          "type": "tuple[]"
        }
      ],
      "stateMutability": "view",
      "type": "function"
    },
    {
      "inputs": [
        {
          "internalType": "address",
          "name": "_user",
          "type": "address"
        }
      ],
      "name": "getUserBids",
      "outputs": [
        {
          "internalType": "uint256[]",
          "name": "",
          "type": "uint256[]"
        }
      ],
      "stateMutability": "view",
      "type": "function"
    },
    {
      "inputs": [
        {
          "internalType": "uint256",
          "name": "_tokenId",
          "type": "uint256"
        }
      ],
      "name": "isNFTOnAuction",
      "outputs": [
        {
          "internalType": "bool",
          "name": "",
          "type": "bool"
        },
        {
          "internalType": "uint256",
          "name": "",
          "type": "uint256"
        }
      ],
      "stateMutability": "view",
      "type": "function"
    },
    {
      "inputs": [],
      "name": "marketplaceContract",
      "outputs": [
        {
          "internalType": "address",
          "name": "",
          "type": "address"
        }
      ],
      "stateMutability": "view",
      "type": "function"
    },
    {
      "inputs": [],
      "name": "nftContract",
      "outputs": [
        {
          "internalType": "contract NFT",
          "name": "",
          "type": "address"
        }
      ],
      "stateMutability": "view",
      "type": "function"
    },
    {
      "inputs": [
        {
          "internalType": "address",
          "name": "",
          "type": "address"
        },
        {
          "internalType": "address",
          "name": "",
          "type": "address"
        },
        {
          "internalType": "uint256",
          "name": "",
          "type": "uint256"
        },
        {
          "internalType": "bytes",
          "name": "",
          "type": "bytes"
        }
      ],
      "name": "onERC721Received",
      "outputs": [
        {
          "internalType": "bytes4",
          "name": "",
          "type": "bytes4"
        }
      ],
      "stateMutability": "pure",
      "type": "function"
    },
    {
      "inputs": [],
      "name": "owner",
      "outputs": [
        {
          "internalType": "address",
          "name": "",
          "type": "address"
        }
      ],
      "stateMutability": "view",
      "type": "function"
    },
    {
      "inputs": [
        {
          "internalType": "uint256",
          "name": "_tokenId",
          "type": "uint256"
        }
      ],
      "name": "placeBid",
      "outputs": [],
      "stateMutability": "payable",
      "type": "function"
    },
    {
      "inputs": [],
      "name": "renounceOwnership",
      "outputs": [],
      "stateMutability": "nonpayable",
      "type": "function"
    },
    {
      "inputs": [
        {
          "internalType": "uint256",
          "name": "",
          "type": "uint256"
        }
      ],
      "name": "tokenIdToAuctionId",
      "outputs": [
        {
          "internalType": "uint256",
          "name": "",
          "type": "uint256"
        }
      ],
      "stateMutability": "view",
      "type": "function"
    },
    {
      "inputs": [
        {
          "internalType": "address",
          "name": "newOwner",
          "type": "address"
        }
      ],
      "name": "transferOwnership",
      "outputs": [],
      "stateMutability": "nonpayable",
      "type": "function"
    },
    {
      "inputs": [
        {
          "internalType": "address",
          "name": "_marketplaceContractAddress",
          "type": "address"
        }
      ],
      "name": "updateMarketplaceContract",
      "outputs": [],
      "stateMutability": "nonpayable",
      "type": "function"
    },
    {
      "inputs": [
        {
          "internalType": "address",
          "name": "",
          "type": "address"
        },
        {
          "internalType": "uint256",
          "name": "",
          "type": "uint256"
        }
      ],
      "name": "userBids",
      "outputs": [
        {
          "internalType": "bool",
          "name": "",
          "type": "bool"
        }
      ],
      "stateMutability": "view",
      "type": "function"
    },
    {
      "inputs": [
        {
          "internalType": "uint256",
          "name": "_auctionId",
          "type": "uint256"
        }
      ],
      "name": "withdrawBid",
      "outputs": [],
      "stateMutability": "nonpayable",
      "type": "function"
    }
  ],
  "bytecode": "0x60a0346200011057601f62001d7f38819003918201601f19168301916001600160401b038311848410176200011557808492604094855283398101031262000110576200005a602062000052836200012b565b92016200012b565b9060016000553315620000f75760018054336001600160a01b031980831682179093556040519492936001600160a01b03939284929083167f8be0079c531659141344cd1fd0a4f28419497f9722a3daafe3b4186f6b6457e0600080a31660805216906002541617600255611c3e90816200014182396080518181816108cd01528181610a4a015281816111260152818161141501526116640152f35b604051631e4fbdf760e01b815260006004820152602490fd5b600080fd5b634e487b7160e01b600052604160045260246000fd5b51906001600160a01b0382168203620001105756fe6080604052600436101561001257600080fd5b60003560e01c80630eaaf4c8146101a2578063150b7a021461019d5780632ad71573146101985780632dd4a548146101935780634e62917b1461018e578063571a26a014610175578063597a3481146101895780635f93de49146101845780636759789f1461017f578063715018a61461017a57806378bd793514610175578063859b97fe146101705780638da5cb5b1461016b578063961c9ae41461016657806396ec50c3146101615780639979ef451461015c578063b9a2de3a14610157578063cc73171614610152578063cd999d0f1461014d578063cf44b5d514610148578063d1bb5cf114610143578063d56d229d1461013e578063e7d585a814610139578063f2fde38b146101345763f49a52aa1461012f57600080fd5b61183b565b6117a9565b6116f0565b61164e565b611625565b611554565b611536565b61134c565b611080565b610e5f565b610e0f565b6109d1565b6109a8565b6107fb565b61055f565b61079a565b610713565b610675565b610612565b610541565b610515565b6104f7565b61044d565b3461039a57602036600319011261039a576004356101be611bb9565b6101d2816000526003602052604060002090565b600881015460ff8160081c161590811561038f575b5061037d576006015461020a906001600160a01b03165b6001600160a01b031690565b331461036b57600090610227816000526005602052604060002090565b5460005b81811061029f575b5050811561028d576000808080853382f1156102885760405191825233917f8f8619524e8d462cead34604bd2247ede24175801481e4d0b8059ac8aa41c3019080602081015b0390a36102866001600055565b005b61195c565b6040516311375f6f60e31b8152600490fd5b6102bc816102b7856000526005602052604060002090565b610654565b505433906102d2906001600160a01b03166101fe565b146102df5760010161022b565b61034891935061034261032c6001610305846102b7886000526005602052604060002090565b50015495610326610320876000526005602052604060002090565b91611898565b90610654565b50916102b7856000526005602052604060002090565b906118cf565b61036461035f826000526005602052604060002090565b611918565b3880610233565b604051635d18134360e01b8152600490fd5b604051635544086d60e01b8152600490fd5b60ff915016386101e7565b600080fd5b6001600160a01b0381160361039a57565b634e487b7160e01b600052604160045260246000fd5b67ffffffffffffffff81116103da57604052565b6103b0565b6060810190811067ffffffffffffffff8211176103da57604052565b90601f8019910116810190811067ffffffffffffffff8211176103da57604052565b60405190610140820182811067ffffffffffffffff8211176103da57604052565b6040519061044b826103df565b565b3461039a57608036600319011261039a5761046960043561039f565b61047460243561039f565b67ffffffffffffffff60643581811161039a573660238201121561039a5780600401359182116103da57604051916104b6601f8201601f1916602001846103fb565b808352366024828401011161039a576000928160246020940184830137010152604051630a85bd0160e11b8152602090f35b0390f35b600091031261039a57565b3461039a57600036600319011261039a576020600854604051908152f35b3461039a57602036600319011261039a5760043560005260046020526020604060002054604051908152f35b3461039a57600036600319011261039a57602060405162278d008152f35b3461039a57602036600319011261039a576004803560009081526003602081815260409283902080546001820154600283015494830154968301546005840154600685015460078601546008968701548a516001600160a01b03978816815298890195909552988701979097526060860198909852608085015260a084019690965290921660c082015260e081019290925260ff808416151561010084015292901c909116151561012082015261014090f35b3461039a57602036600319011261039a576040610630600435611968565b825191151582526020820152f35b634e487b7160e01b600052603260045260246000fd5b8054821015610670576000526003602060002091020190600090565b61063e565b3461039a57604036600319011261039a5760243560043560005260056020526040600020805482101561039a576060916106ae91610654565b5060018060a01b0381541690600260018201549101549060405192835260208301526040820152f35b602090602060408183019282815285518094520193019160005b8281106106ff575050505090565b8351855293810193928101926001016106f1565b3461039a5760208060031936011261039a576004356107318161039f565b6001600160a01b0316600090815260076020908152604080832090518154808252918452828420928101949093905b828210610783576104e885610777818903826103fb565b604051918291826106d7565b835486529485019460019384019390910190610760565b3461039a576000806003193601126107f8576107b4611bdc565b600180546001600160a01b0319811690915581906001600160a01b03167f8be0079c531659141344cd1fd0a4f28419497f9722a3daafe3b4186f6b6457e08280a380f35b80fd5b3461039a57604036600319011261039a576004356108188161039f565b602435610823611bb9565b610837816000526003602052604060002090565b805461084b906001600160a01b03166101fe565b6001600160a01b0393841603610996576008810190815460ff8160081c161590811561098b575b5061037d57600681015484166001600160a01b0316610979576108ad826108a2600194600160ff19825416179055565b805461ff0019169055565b01916000928391826108ca83546000526004602052604060002090565b557f0000000000000000000000000000000000000000000000000000000000000000169054813b156109755760405163a25440a760e01b815260048101919091526000602482015291908290604490829084905af180156102885761095c575b507f2809c7e17bf978fbc7194c0a694b638c4215e9140cacc6c38ca36010b45697df8280a26109596001600055565b80f35b8061096961096f926103c6565b806104ec565b3861092a565b8280fd5b60405163ca63af5d60e01b8152600490fd5b60ff91501638610872565b604051635ec8235160e01b8152600490fd5b3461039a57600036600319011261039a576001546040516001600160a01b039091168152602090f35b3461039a5760a036600319011261039a5760048035906109f08261039f565b602435604435906064359360843592610a07611bb9565b6201518084108015610e03575b610df2578015610de157808610610dd057604080516331a9108f60e11b815286810185815291956001600160a01b0394602094937f00000000000000000000000000000000000000000000000000000000000000008716939192919086908290819083010381875afa90811561028857600091610da3575b508683169687911603610d9357875163e985e9c560e01b81526001600160a01b0383168a82019081523060208201528690829081906040010381875afa90811561028857600091610d66575b5015610d5657888851868180610b008c6323c1f0ad60e21b9687845283019190602083019252565b0381885afa8015610288578b88918b93600091610d39575b50610b22816119b1565b15159384610ccc575b50505050610cbc57610b47876000526004602052604060002090565b54610cbc579086610b6f610be393610b69610b6460085460010190565b600855565b42611a19565b95610b8a610b7b61041d565b6001600160a01b039094168452565b82015283888201528960608201524260808201528460a0820152600060c0820152600060e08201526000610100820152610bc8610120820160019052565b610bde6008546000526003602052604060002090565b611a26565b600854610bfa866000526004602052604060002090565b55803b1561039a57855163a25440a760e01b815296870185815260026020820152600091889182908490829060400103925af1908115610288576104e897610c8e977f3605d71e596cf139c8a211e38143afc7034e2158d00d864d7df7e91882b5bcba93610ca9575b5060085497889488519384934291859094939260609260808301968352602083015260408201520152565b0390a4610c9b6001600055565b519081529081906020820190565b80610969610cb6926103c6565b38610c63565b875163a95aa5d560e01b81528990fd5b8c51908152908101928352925090829081906020010381875afa801561028857600191600091610d0c575b50610d01816119b1565b141587868b38610b2b565b610d2c9150873d8911610d32575b610d2481836103fb565b810190611a01565b38610cf7565b503d610d1a565b610d509150833d8511610d3257610d2481836103fb565b38610b18565b8751630711778560e51b81528990fd5b610d869150863d8811610d8c575b610d7e81836103fb565b8101906119e9565b38610ad8565b503d610d74565b87516359dc379f60e01b81528990fd5b610dc39150863d8811610dc9575b610dbb81836103fb565b8101906119d1565b38610a8c565b503d610db1565b60405163fb33f9b560e01b81528590fd5b6040516310d687b960e11b81528590fd5b604051637616640160e01b81528590fd5b5062278d008411610a14565b3461039a57604036600319011261039a57600435610e2c8161039f565b60018060a01b031660005260066020526040600020602435600052602052602060ff604060002054166040519015158152f35b602036600319011261039a576004610e75611bb9565b610e8a81356000526004602052604060002090565b5490811561107157610ea6826000526003602052604060002090565b90600882015460ff8160081c1615908115611066575b5061105757600582015442101561104857600782019182549182341115611039576002820154341061102a575060060180549091906001600160a01b031680611005575b505080546001600160a01b03191633179055349055610f49610f2c826000526005602052604060002090565b610f3461043e565b33815290346020830152426040830152611af6565b336000908152600660205260409020610f8190610f7d90610f769084905b90600052602052604060002090565b5460ff1690565b1590565b610fbb575b6040513481523391907f0e54eff26401bf69b81b26f60bd85ef47f5d85275c1d268d84f68d6897431c47908060208101610279565b336000908152600660205260409020610fe690610fd9908390610f67565b805460ff19166001179055565b336000908152600760205260409020611000908290611b4e565b610f86565b60008080938193828215611021575bf115610288573880610f00565b506108fc611014565b60405163b09c14d960e01b8152fd5b604051635069375b60e11b8152fd5b604051630129799f60e21b8152fd5b604051635544086d60e01b8152fd5b60ff91501638610ebc565b6040516307145c5f60e11b8152fd5b3461039a57602036600319011261039a5760043561109c611bb9565b6002546110b1906001600160a01b03166101fe565b330361133a576110cb816000526003602052604060002090565b60088101805460ff8160081c161590811561132f575b5061037d576005820154421061037d57805460ff19166001178155611105906108a2565b600781018054600383015491929181106112be575080546001600160a01b037f000000000000000000000000000000000000000000000000000000000000000081169390929183166006830180549095906001600160a01b0316600185015492823b1561039a57604051632142170760e11b81526001600160a01b0391821660048201529116602482015260448101929092526000919082908290606490829084905af18015610288576112ab575b508154818080806111d96111d26111ca87611b77565b612710900490565b80966118ac565b88546111ef906101fe906001600160a01b031681565b8282156112a2575bf11561028857818080926112186101fe6101fe60015460018060a01b031690565b828215611299575bf115610288576000947fd2aa34a4fdbbc6dff6a3e56f46e0f3ae2a31d7785ff3487aa5c95c642acea501600194611260611282975460018060a01b031690565b9354604051908152931692602090a35b01546000526004602052604060002090565b5561128d6001600055565b60405160018152602090f35b506108fc611220565b506108fc6111f7565b806109696112b8926103c6565b386111b4565b6006820154919250906001600160a01b03168061130a575b50506001611282916000937f2809c7e17bf978fbc7194c0a694b638c4215e9140cacc6c38ca36010b45697df8580a2611270565b60008080938193828215611326575bf1156102885738806112d6565b506108fc611319565b60ff915016386110e1565b60405163386317a360e01b8152600490fd5b3461039a57602036600319011261039a57600435611368611bb9565b60025461137d906001600160a01b03166101fe565b330361133a57611397816000526003602052604060002090565b9060088201805460ff8160081c161590811561152b575b5061037d57805460ff191660011781556113c7906108a2565b60068201546001600160a01b039290831680611502575b50600101600092836113fb83546000526004602052604060002090565b5590546040516323c1f0ad60e21b815260048101829052917f00000000000000000000000000000000000000000000000000000000000000001690602083602481855afa801561028857859384916114e3575b50611458816119b1565b61148d575b5050807f4cf74458083e154efbd07e3d95848a36fdafe89033d76b6e9974d70bff5f44d091a26109596001600055565b813b156109755760405163a25440a760e01b815260048101919091526000602482015291908290604490829084905af18015610288576114d0575b80839161145d565b806109696114dd926103c6565b386114c8565b6114fc915060203d602011610d3257610d2481836103fb565b3861144e565b600080808093600786015490828215611522575bf11561028857386113de565b506108fc611516565b60ff915016386113ae565b3461039a57600036600319011261039a576020604051620151808152f35b3461039a576000806003193601126107f857600880549061157482611b8d565b9160409161158560405194856103fb565b81845261159182611b8d565b60209390601f190136868601378560019460015b858111156115be57888852604051806104e88a826106d7565b8083526003825283832085015460081c60ff16806115fc575b6115e3575b86016115a5565b9786818a6115f283948c611ba5565b52019890506115dc565b50611620610f7d86611618846000526003602052604060002090565b015460ff1690565b6115d7565b3461039a57600036600319011261039a576002546040516001600160a01b039091168152602090f35b3461039a57600036600319011261039a576040517f00000000000000000000000000000000000000000000000000000000000000006001600160a01b03168152602090f35b60208082019080835283518092528060408094019401926000905b8382106116bd57505050505090565b845180516001600160a01b03168752808401518785015281015186820152606090950194938201936001909101906116ae565b3461039a5760208060031936011261039a5760006004358152600482526040918282205480156117985782526005815282822080549161172f83611b8d565b9361173c865195866103fb565b8385529182528082208185015b84841061175d578651806104e88882611693565b600383600192895161176e816103df565b848060a01b038654168152848601548382015260028601548b820152815201920193019290611749565b83516307145c5f60e11b8152600490fd5b3461039a57602036600319011261039a576004356117c68161039f565b6117ce611bdc565b6001600160a01b0390811690811561182257600154826bffffffffffffffffffffffff60a01b821617600155167f8be0079c531659141344cd1fd0a4f28419497f9722a3daafe3b4186f6b6457e0600080a3005b604051631e4fbdf760e01b815260006004820152602490fd5b3461039a57602036600319011261039a576004356118588161039f565b611860611bdc565b600280546001600160a01b0319166001600160a01b0392909216919091179055005b634e487b7160e01b600052601160045260246000fd5b6000198101919082116118a757565b611882565b919082039182116118a757565b634e487b7160e01b600052600060045260246000fd5b9190611913578082036118e0575050565b805482546001600160a01b0319166001600160a01b03919091161782556002908190600181015460018501550154910155565b6118b9565b8054801561194657600019019061192f8282610654565b611913576002816000809355826001820155015555565b634e487b7160e01b600052603160045260246000fd5b6040513d6000823e3d90fd5b906000918252600460205260408220549182156119ab576040818460089352600360205220015460ff8160081c1690816119a157509190565b60ff915016159190565b91508190565b600411156119bb57565b634e487b7160e01b600052602160045260246000fd5b9081602091031261039a57516119e68161039f565b90565b9081602091031261039a5751801515810361039a5790565b9081602091031261039a5751600481101561039a5790565b919082018092116118a757565b815181546001600160a01b0319166001600160a01b0390911617815561044b9190611ae090610120906008906020850151600182015560408501516002820155606085015160038201556080850151600482015560a0850151600582015560c08501516006820180546001600160a01b0319166001600160a01b0390921691909117905560e085015160078201550192611ad9611ac7610100830151151590565b859060ff801983541691151516179055565b0151151590565b815461ff00191690151560081b61ff0016179055565b8054600160401b8110156103da57611b1391600182018155610654565b91909161191357805182546001600160a01b0319166001600160a01b0391909116178255600290604090602081015160018501550151910155565b805490600160401b8210156103da57600182018082558210156106705760005260206000200155565b9060fa82029180830460fa14901517156118a757565b67ffffffffffffffff81116103da5760051b60200190565b80518210156106705760209160051b010190565b600260005414611bca576002600055565b604051633ee5aeb560e01b8152600490fd5b6001546001600160a01b03163303611bf057565b60405163118cdaa760e01b8152336004820152602490fdfea2646970667358221220f55c9cfe5c717661c0ade83a988b15498216299486feb78b52783d7d7ca35a0064736f6c63430008180033",
  "linkReferences": {},
  "deployedLinkReferences": {}
}