{
  "_format": "hh-sol-artifact-1",
  "contractName": "NFTMarketplace",
  "sourceName": "contracts/NFTMarketplace.sol",
  "abi": [
    {
      "inputs": [
        {
          "internalType": "address",
          "name": "_nftContractAddress",
          "type": "address"
        },
        {
          "internalType": "address",
          "name": "_collectionContractAddress",
          "type": "address"
        },
        {
          "internalType": "address",
          "name": "_auctionContractAddress",
          "type": "address"
        }
      ],
      "stateMutability": "nonpayable",
      "type": "constructor"
    },
    {
      "inputs": [],
      "name": "AuctionEndingFailed",
      "type": "error"
    },
    {
      "inputs": [],
      "name": "AuctionOnlyListing",
      "type": "error"
    },
    {
      "inputs": [],
      "name": "BatchDelistFailed",
      "type": "error"
    },
    {
      "inputs": [],
      "name": "CollectionNotActive",
      "type": "error"
    },
    {
      "inputs": [],
      "name": "ContractNotApproved",
      "type": "error"
    },
    {
      "inputs": [],
      "name": "ExcessRefundFailed",
      "type": "error"
    },
    {
      "inputs": [],
      "name": "InsufficientPayment",
      "type": "error"
    },
    {
      "inputs": [],
      "name": "InvalidAuctionParameters",
      "type": "error"
    },
    {
      "inputs": [],
      "name": "InvalidAuctionState",
      "type": "error"
    },
    {
      "inputs": [],
      "name": "InvalidListingType",
      "type": "error"
    },
    {
      "inputs": [],
      "name": "InvalidPageSize",
      "type": "error"
    },
    {
      "inputs": [],
      "name": "InvalidSortOrder",
      "type": "error"
    },
    {
      "inputs": [],
      "name": "InvalidStatus",
      "type": "error"
    },
    {
      "inputs": [],
      "name": "ListingNotActive",
      "type": "error"
    },
    {
      "inputs": [],
      "name": "ListingNotFound",
      "type": "error"
    },
    {
      "inputs": [],
      "name": "NFTOnAuction",
      "type": "error"
    },
    {
      "inputs": [],
      "name": "NFTUnavailableForPurchase",
      "type": "error"
    },
    {
      "inputs": [],
      "name": "NotNFTOwner",
      "type": "error"
    },
    {
      "inputs": [],
      "name": "NotSeller",
      "type": "error"
    },
    {
      "inputs": [],
      "name": "PlatformFeeTransferFailed",
      "type": "error"
    },
    {
      "inputs": [],
      "name": "PriceFilterMismatch",
      "type": "error"
    },
    {
      "inputs": [],
      "name": "PriceMustBeGreaterThanZero",
      "type": "error"
    },
    {
      "inputs": [],
      "name": "ReentrancyGuardReentrantCall",
      "type": "error"
    },
    {
      "inputs": [],
      "name": "RoyaltyFeeTransferFailed",
      "type": "error"
    },
    {
      "inputs": [],
      "name": "SellerNoLongerOwnsNFT",
      "type": "error"
    },
    {
      "inputs": [],
      "name": "SellerPaymentFailed",
      "type": "error"
    },
    {
      "inputs": [],
      "name": "TokenAlreadyListed",
      "type": "error"
    },
    {
      "inputs": [],
      "name": "TransferFailed",
      "type": "error"
    },
    {
      "anonymous": false,
      "inputs": [
        {
          "indexed": true,
          "internalType": "uint256",
          "name": "listingId",
          "type": "uint256"
        },
        {
          "indexed": true,
          "internalType": "uint256",
          "name": "auctionId",
          "type": "uint256"
        }
      ],
      "name": "AuctionPurchaseProcessed",
      "type": "event"
    },
    {
      "anonymous": false,
      "inputs": [
        {
          "indexed": false,
          "internalType": "uint256[]",
          "name": "tokenIds",
          "type": "uint256[]"
        }
      ],
      "name": "BatchDelisted",
      "type": "event"
    },
    {
      "anonymous": false,
      "inputs": [
        {
          "indexed": true,
          "internalType": "uint256",
          "name": "listingId",
          "type": "uint256"
        }
      ],
      "name": "ListingCancelled",
      "type": "event"
    },
    {
      "anonymous": false,
      "inputs": [
        {
          "indexed": true,
          "internalType": "uint256",
          "name": "listingId",
          "type": "uint256"
        },
        {
          "indexed": false,
          "internalType": "uint256",
          "name": "newPrice",
          "type": "uint256"
        }
      ],
      "name": "ListingPriceUpdated",
      "type": "event"
    },
    {
      "anonymous": false,
      "inputs": [
        {
          "indexed": true,
          "internalType": "uint256",
          "name": "listingId",
          "type": "uint256"
        },
        {
          "indexed": false,
          "internalType": "enum NFTMarketplace.ListingType",
          "name": "newType",
          "type": "uint8"
        }
      ],
      "name": "ListingTypeUpdated",
      "type": "event"
    },
    {
      "anonymous": false,
      "inputs": [
        {
          "indexed": true,
          "internalType": "uint256",
          "name": "listingId",
          "type": "uint256"
        },
        {
          "indexed": true,
          "internalType": "address",
          "name": "seller",
          "type": "address"
        },
        {
          "indexed": false,
          "internalType": "uint256",
          "name": "tokenId",
          "type": "uint256"
        },
        {
          "indexed": false,
          "internalType": "uint256",
          "name": "price",
          "type": "uint256"
        },
        {
          "indexed": false,
          "internalType": "uint256",
          "name": "collectionId",
          "type": "uint256"
        },
        {
          "indexed": false,
          "internalType": "enum NFTMarketplace.ListingType",
          "name": "listingType",
          "type": "uint8"
        },
        {
          "indexed": false,
          "internalType": "uint256",
          "name": "auctionId",
          "type": "uint256"
        }
      ],
      "name": "NFTListed",
      "type": "event"
    },
    {
      "anonymous": false,
      "inputs": [
        {
          "indexed": true,
          "internalType": "uint256",
          "name": "listingId",
          "type": "uint256"
        },
        {
          "indexed": true,
          "internalType": "address",
          "name": "buyer",
          "type": "address"
        },
        {
          "indexed": true,
          "internalType": "address",
          "name": "seller",
          "type": "address"
        },
        {
          "indexed": false,
          "internalType": "uint256",
          "name": "tokenId",
          "type": "uint256"
        },
        {
          "indexed": false,
          "internalType": "uint256",
          "name": "price",
          "type": "uint256"
        },
        {
          "indexed": false,
          "internalType": "uint256",
          "name": "collectionId",
          "type": "uint256"
        }
      ],
      "name": "NFTSold",
      "type": "event"
    },
    {
      "stateMutability": "payable",
      "type": "fallback"
    },
    {
      "inputs": [],
      "name": "PLATFORM_FEE_PERCENTAGE",
      "outputs": [
        {
          "internalType": "uint256",
          "name": "",
          "type": "uint256"
        }
      ],
      "stateMutability": "view",
      "type": "function"
    },
    {
      "inputs": [
        {
          "internalType": "uint256",
          "name": "collectionId",
          "type": "uint256"
        },
        {
          "internalType": "uint256[]",
          "name": "tokenIds",
          "type": "uint256[]"
        },
        {
          "internalType": "address",
          "name": "offerer",
          "type": "address"
        }
      ],
      "name": "acceptCollectionOfferAndDelist",
      "outputs": [],
      "stateMutability": "nonpayable",
      "type": "function"
    },
    {
      "inputs": [
        {
          "internalType": "uint256",
          "name": "_listingId",
          "type": "uint256"
        }
      ],
      "name": "buyNFT",
      "outputs": [],
      "stateMutability": "payable",
      "type": "function"
    },
    {
      "inputs": [
        {
          "internalType": "uint256",
          "name": "_listingId",
          "type": "uint256"
        }
      ],
      "name": "canEndAuction",
      "outputs": [
        {
          "internalType": "bool",
          "name": "",
          "type": "bool"
        }
      ],
      "stateMutability": "view",
      "type": "function"
    },
    {
      "inputs": [
        {
          "internalType": "uint256",
          "name": "_listingId",
          "type": "uint256"
        }
      ],
      "name": "cancelListing",
      "outputs": [],
      "stateMutability": "nonpayable",
      "type": "function"
    },
    {
      "inputs": [
        {
          "internalType": "uint256",
          "name": "_listingId",
          "type": "uint256"
        }
      ],
      "name": "finalizeAuctionAndDelist",
      "outputs": [],
      "stateMutability": "nonpayable",
      "type": "function"
    },
    {
      "inputs": [
        {
          "internalType": "uint256",
          "name": "_offset",
          "type": "uint256"
        },
        {
          "internalType": "uint256",
          "name": "_limit",
          "type": "uint256"
        }
      ],
      "name": "getActiveListings",
      "outputs": [
        {
          "internalType": "uint256[]",
          "name": "",
          "type": "uint256[]"
        }
      ],
      "stateMutability": "view",
      "type": "function"
    },
    {
      "inputs": [
        {
          "internalType": "uint256",
          "name": "_collectionId",
          "type": "uint256"
        }
      ],
      "name": "getCollectionListings",
      "outputs": [
        {
          "internalType": "uint256[]",
          "name": "",
          "type": "uint256[]"
        }
      ],
      "stateMutability": "view",
      "type": "function"
    },
    {
      "inputs": [
        {
          "internalType": "address",
          "name": "_creator",
          "type": "address"
        }
      ],
      "name": "getCreatorListings",
      "outputs": [
        {
          "internalType": "uint256[]",
          "name": "",
          "type": "uint256[]"
        }
      ],
      "stateMutability": "view",
      "type": "function"
    },
    {
      "inputs": [
        {
          "components": [
            {
              "internalType": "enum NFTMarketplace.ListingType",
              "name": "listingType",
              "type": "uint8"
            },
            {
              "internalType": "uint256",
              "name": "collectionId",
              "type": "uint256"
            },
            {
              "internalType": "uint256",
              "name": "minPrice",
              "type": "uint256"
            },
            {
              "internalType": "uint256",
              "name": "maxPrice",
              "type": "uint256"
            },
            {
              "internalType": "enum NFTMarketplace.SortOrder",
              "name": "sortOrder",
              "type": "uint8"
            },
            {
              "internalType": "uint256",
              "name": "offset",
              "type": "uint256"
            },
            {
              "internalType": "uint256",
              "name": "limit",
              "type": "uint256"
            }
          ],
          "internalType": "struct NFTMarketplace.FilterParams",
          "name": "params",
          "type": "tuple"
        }
      ],
      "name": "getFilteredListings",
      "outputs": [
        {
          "components": [
            {
              "internalType": "uint256",
              "name": "listingId",
              "type": "uint256"
            },
            {
              "internalType": "address",
              "name": "seller",
              "type": "address"
            },
            {
              "internalType": "uint256",
              "name": "tokenId",
              "type": "uint256"
            },
            {
              "internalType": "uint256",
              "name": "price",
              "type": "uint256"
            },
            {
              "internalType": "uint256",
              "name": "collectionId",
              "type": "uint256"
            },
            {
              "internalType": "enum NFTMarketplace.ListingType",
              "name": "listingType",
              "type": "uint8"
            },
            {
              "internalType": "uint256",
              "name": "auctionId",
              "type": "uint256"
            }
          ],
          "internalType": "struct NFTMarketplace.ListingView[]",
          "name": "",
          "type": "tuple[]"
        },
        {
          "internalType": "uint256",
          "name": "",
          "type": "uint256"
        }
      ],
      "stateMutability": "view",
      "type": "function"
    },
    {
      "inputs": [
        {
          "internalType": "uint256",
          "name": "_listingId",
          "type": "uint256"
        }
      ],
      "name": "getListingDetails",
      "outputs": [
        {
          "internalType": "address",
          "name": "seller",
          "type": "address"
        },
        {
          "internalType": "uint256",
          "name": "tokenId",
          "type": "uint256"
        },
        {
          "internalType": "uint256",
          "name": "price",
          "type": "uint256"
        },
        {
          "internalType": "uint256",
          "name": "collectionId",
          "type": "uint256"
        },
        {
          "internalType": "bool",
          "name": "isActive",
          "type": "bool"
        },
        {
          "internalType": "enum NFTMarketplace.ListingType",
          "name": "listingType",
          "type": "uint8"
        },
        {
          "internalType": "uint256",
          "name": "auctionId",
          "type": "uint256"
        }
      ],
      "stateMutability": "view",
      "type": "function"
    },
    {
      "inputs": [],
      "name": "i_auctionContract",
      "outputs": [
        {
          "internalType": "contract NFTAuction",
          "name": "",
          "type": "address"
        }
      ],
      "stateMutability": "view",
      "type": "function"
    },
    {
      "inputs": [],
      "name": "i_collectionContract",
      "outputs": [
        {
          "internalType": "contract NFTCollections",
          "name": "",
          "type": "address"
        }
      ],
      "stateMutability": "view",
      "type": "function"
    },
    {
      "inputs": [],
      "name": "i_feeRecipient",
      "outputs": [
        {
          "internalType": "address",
          "name": "",
          "type": "address"
        }
      ],
      "stateMutability": "view",
      "type": "function"
    },
    {
      "inputs": [],
      "name": "i_nftContract",
      "outputs": [
        {
          "internalType": "contract NFT",
          "name": "",
          "type": "address"
        }
      ],
      "stateMutability": "view",
      "type": "function"
    },
    {
      "inputs": [
        {
          "internalType": "uint256",
          "name": "_tokenId",
          "type": "uint256"
        }
      ],
      "name": "isNFTListed",
      "outputs": [
        {
          "internalType": "bool",
          "name": "",
          "type": "bool"
        },
        {
          "internalType": "uint256",
          "name": "",
          "type": "uint256"
        }
      ],
      "stateMutability": "view",
      "type": "function"
    },
    {
      "inputs": [
        {
          "internalType": "uint256",
          "name": "_tokenId",
          "type": "uint256"
        },
        {
          "internalType": "uint256",
          "name": "_price",
          "type": "uint256"
        },
        {
          "internalType": "enum NFTMarketplace.ListingType",
          "name": "_listingType",
          "type": "uint8"
        },
        {
          "internalType": "uint256",
          "name": "_startingPrice",
          "type": "uint256"
        },
        {
          "internalType": "uint256",
          "name": "_reservePrice",
          "type": "uint256"
        },
        {
          "internalType": "uint256",
          "name": "_duration",
          "type": "uint256"
        }
      ],
      "name": "listNFT",
      "outputs": [],
      "stateMutability": "nonpayable",
      "type": "function"
    },
    {
      "inputs": [],
      "name": "listingCounter",
      "outputs": [
        {
          "internalType": "uint256",
          "name": "",
          "type": "uint256"
        }
      ],
      "stateMutability": "view",
      "type": "function"
    },
    {
      "inputs": [
        {
          "internalType": "uint256",
          "name": "",
          "type": "uint256"
        }
      ],
      "name": "listings",
      "outputs": [
        {
          "internalType": "address",
          "name": "seller",
          "type": "address"
        },
        {
          "internalType": "uint256",
          "name": "tokenId",
          "type": "uint256"
        },
        {
          "internalType": "uint256",
          "name": "price",
          "type": "uint256"
        },
        {
          "internalType": "uint256",
          "name": "collectionId",
          "type": "uint256"
        },
        {
          "internalType": "bool",
          "name": "isActive",
          "type": "bool"
        },
        {
          "internalType": "enum NFTMarketplace.ListingType",
          "name": "listingType",
          "type": "uint8"
        },
        {
          "internalType": "uint256",
          "name": "auctionId",
          "type": "uint256"
        }
      ],
      "stateMutability": "view",
      "type": "function"
    },
    {
      "inputs": [
        {
          "internalType": "uint256",
          "name": "_listingId",
          "type": "uint256"
        },
        {
          "internalType": "uint256",
          "name": "_newPrice",
          "type": "uint256"
        }
      ],
      "name": "updateListingPrice",
      "outputs": [],
      "stateMutability": "nonpayable",
      "type": "function"
    },
    {
      "inputs": [
        {
          "internalType": "uint256",
          "name": "_listingId",
          "type": "uint256"
        },
        {
          "internalType": "enum NFTMarketplace.ListingType",
          "name": "_newType",
          "type": "uint8"
        },
        {
          "internalType": "uint256",
          "name": "_startingPrice",
          "type": "uint256"
        },
        {
          "internalType": "uint256",
          "name": "_reservePrice",
          "type": "uint256"
        },
        {
          "internalType": "uint256",
          "name": "_duration",
          "type": "uint256"
        }
      ],
      "name": "updateListingType",
      "outputs": [],
      "stateMutability": "nonpayable",
      "type": "function"
    },
    {
      "stateMutability": "payable",
      "type": "receive"
    }
  ],
  "bytecode": "0x610100346200015957601f62002d6938819003918201601f19168301916001600160401b038311848410176200015e5780849260609460405283398101031262000159576200004e8162000174565b6200006a6040620000626020850162000174565b930162000174565b60016000553060e0526001600160a01b0391821660c0529181166080521660a052604051612bdf90816200018a823960805181818161076401528181610d19015281816115e801526126e7015260a05181818161018f015281816102bc0152818161051501528181610a0b0152818161100d015281816113ac0152818161144201528181611eeb0152612917015260c0518181816101f001528181610308015281816104b90152818161064a01528181610d760152818161118d01528181611254015281816112f90152818161170e01528181611aa10152612827015260e051818181610e09015261187d0152f35b600080fd5b634e487b7160e01b600052604160045260246000fd5b51906001600160a01b0382168203620001595756fe60806040526004361015610018575b361561001657005b005b60003560e01c80631104331814610164578063155482321461015f5780631fc8b71d1461015a5780632314086d14610155578063305a67a81461015057806334fff8d21461014b5780634162a5651461014657806351ed82881461014157806352b168161461013c5780636c2c9c7d146101375780637268691c14610132578063952efeca1461012d5780639f50c59914610128578063a5bb7d0314610123578063adb78eac1461011e578063b5ac40ea14610119578063c128b23114610114578063c33f64591461010f578063c46049431461010a578063de74e57b146101055763fb05da2e0361000e575b611b7d565b611a02565b611969565b6118ac565b611867565b61183b565b6117d5565b611664565b6115d2565b611519565b6114d6565b6110c0565b610c47565b610c1f565b6105c5565b61043e565b61021f565b6101da565b6101be565b610179565b600091031261017457565b600080fd5b34610174576000366003190112610174576040517f00000000000000000000000000000000000000000000000000000000000000006001600160a01b03168152602090f35b3461017457600036600319011261017457602060405160fa8152f35b34610174576000366003190112610174576040517f00000000000000000000000000000000000000000000000000000000000000006001600160a01b03168152602090f35b34610174576020366003190112610174576004803561023c612aaf565b610250816000526002602052604060002090565b9180830192835460ff81161561042d5760081c60ff1661026f8161150a565b60028114159081610418575b50610408576005810180549081156103f757604051635cd16f1d60e11b8152848101928352956001600160a01b039287906020010396602081600099818b887f0000000000000000000000000000000000000000000000000000000000000000165af19081156103ae5788916103c8575b50156103b757805460ff191690558590556001919091015484917f000000000000000000000000000000000000000000000000000000000000000016803b156103b3576040805163a25440a760e01b8152948501928352600060208401528492839185918391015b03925af180156103ae57610395575b507f411aee90354c51b1b04cd563fcab2617142a9d50da19232d888547c8a1b7fd8a8280a26103926001600055565b80f35b806103a26103a892611c17565b80610169565b38610363565b611c92565b8280fd5b604051631a57ce1d60e01b81528590fd5b6103ea915060203d6020116103f0575b6103e28183611c4c565b810190611c7b565b386102ec565b503d6103d8565b604051635544086d60e01b81528490fd5b5060405163748c275160e11b8152fd5b600391506104258161150a565b14153861027b565b6040516366cb03e960e01b81528390fd5b34610174576020366003190112610174576004803561045b612aaf565b61046f816000526002602052604060002090565b80546001600160a01b039033908216036105aa57838201610498610494825460ff1690565b1590565b61059957805460ff19169055600582019081549182610512575b50600191507f000000000000000000000000000000000000000000000000000000000000000016910154813b15610174576040805163a25440a760e01b815294850191825260006020830181905294928592849283918591839101610354565b817f000000000000000000000000000000000000000000000000000000000000000016803b1561017457604080516342cdcbff60e11b815233898201908152602081019690965294600092869290918391859183910103925af19081156103ae57600193600092610586575b5055386104b2565b806103a261059392611c17565b3861057e565b6040516366cb03e960e01b81528590fd5b604051635ec8235160e01b81528490fd5b6004111561017457565b346101745760c0366003190112610174576004803560243591604435906105eb826105bb565b6064359360a435926105fb612aaf565b6106048161150a565b8015610c0e576106138161150a565b6001811493848015610bfb575b80610bf3575b610be257604080516331a9108f60e11b815285810188815291966001600160a01b037f000000000000000000000000000000000000000000000000000000000000000081169491936020939084908290819083010381895afa9081156103ae57600091610bb5575b508133911603610ba557885163e985e9c560e01b8152338982019081523060208201528490829081906040010381895afa9081156103ae57600091610b88575b5015610b78578851632b6de3ab60e21b81528881018b81528a90829081906020010381305afa9081156103ae57600091610b4a575b50610b3a578851630b43e78560e31b81528089018b81529a9b999a9899909884908a9081906020010381895afa9889156103ae578b8b9160009b610b12575b505163d4e4d3dd60e01b81529081018a815260e090829081906020015b0381867f0000000000000000000000000000000000000000000000000000000000000000165afa80156103ae5760c0610494916107a693600091610ae3575b500151151590565b610ad35791898b94928d9796946107bc8a61150a565b60028a149889978a159a8b610ac0575b610a8c575b6107e56107e060015460010190565b600155565b60009a6107f18d61150a565b8990610a79575b6109c1575b509250505061085d929150610810611cdf565b33815291820152878b82015288606082015261082f6080820160019052565b61083c8760a08301611d58565b8560c08201526108586001546000526002602052604060002090565b611d83565b6108668561150a565b156109025750803b1561017457865163a25440a760e01b815295860188815260016020820152600091879182908490829060400103925af19182156103ae577f6c938aaf42342f04de54dff8093e835ba3d19361d0cc3a605b8599aed297e7e2956108e2936108ef575b505b6001549651948594339986611dfc565b0390a36100166001600055565b806103a26108fc92611c17565b386108d0565b61090b8461150a565b1561098e57803b1561017457865163a25440a760e01b81529586018881526002602082015260009187918290849082906040015b03925af19182156103ae577f6c938aaf42342f04de54dff8093e835ba3d19361d0cc3a605b8599aed297e7e2956108e29361097b575b506108d2565b806103a261098892611c17565b38610975565b803b1561017457865163a25440a760e01b815295860188815260036020820152600091879182908490829060400161093f565b5163258726b960e21b8152339481019485526020850191909152604084019190915260843560608401526080830193909352929650909186918391908290600090829060a00103927f0000000000000000000000000000000000000000000000000000000000000000165af180156103ae5761085d91600091610a4c575b5094908938808e8e6107fd565b610a6c9150863d8811610a72575b610a648183611c4c565b810190611cd0565b38610a3f565b503d610a5a565b50610a838c61150a565b60038c146107f8565b505080919250158015610ab8575b610aa857908b918e8e6107d1565b8c5163746bcd8360e11b81528c90fd5b508215610a9a565b50610aca8c61150a565b60038c146107cc565b8a516322f1e75560e11b81528a90fd5b610b05915060e03d60e011610b0b575b610afd8183611c4c565b810190611cee565b3861079e565b503d610af3565b61075f929b5090610b3160e092883d8a11610a7257610a648183611c4c565b9b925090610742565b8851636f555ee160e11b81528890fd5b610b6a91508a3d8c11610b71575b610b628183611c4c565b810190611cb3565b5038610703565b503d610b58565b8851630711778560e51b81528890fd5b610b9f9150843d86116103f0576103e28183611c4c565b386106ce565b8851631022318760e21b81528890fd5b610bd59150843d8611610bdb575b610bcd8183611c4c565b810190611c9e565b3861068e565b503d610bc3565b6040516323a3620960e01b81528490fd5b508215610626565b50610c058261150a565b60038214610620565b60405163748c275160e11b81528390fd5b34610174576020366003190112610174576020610c3d600435611e8f565b6040519015158152f35b60203660031901126101745760048035610c5f612aaf565b610c73816000526002602052604060002090565b9082820191825460ff8116156105995760081c60ff1692610c938461150a565b600284146110af5760028201938454341061109e5780610cb460039261150a565b1480611091575b611003575b805460ff191690555b8254610cdf610cd782611fa9565b612710900490565b6003830180546040805163d4e4d3dd60e01b8152808a0192835292986001600160a01b039593919290919060e090829081906020010381897f0000000000000000000000000000000000000000000000000000000000000000165afa9384156103ae578591600095610fde575b50610d7290610d6d610d65610cd7608089015184611fbf565b938492611fe1565b611fe1565b87547f0000000000000000000000000000000000000000000000000000000000000000881695919291906001600160a01b031660018a0197885491883b15610174578751632142170760e11b81526001600160a01b03909116878201908152336020820152604081019390935291600090839081906060010381838c5af19182156103ae57600092839283928392610fcb575b508c7f0000000000000000000000000000000000000000000000000000000000000000165af1610e33611fee565b5015610fbb5781610f74575b5050600080808093610e69610e5d610e5d8d5460018060a01b031690565b6001600160a01b031690565b5af1610e73611fee565b5015610f6657610e84885434611fe1565b80610f49575b508354833b1561017457825163a25440a760e01b81529182019081526000602082018190529193849182908490829060400103925af180156103ae577fe429b79bc0da8809ab9cb14bcb079af569cad6810169a98f161f26942324f5c495610f2993610f0392610f36575b50546001600160a01b031690565b925496549754905193849316973397846040919493926060820195825260208201520152565b0390a46100166001600055565b806103a2610f4392611c17565b38610ef5565b600080808093335af1610f5a611fee565b5015610f665738610e8a565b90516312171d8360e31b8152fd5b60200151600091829182918291610f9590610e5d906001600160a01b031681565b5af1610f9f611fee565b5015610fac573880610e3f565b5090516312171d8360e31b8152fd5b84516312171d8360e31b81528490fd5b806103a2610fd892611c17565b38610e05565b610d72919550610ffc9060e03d60e011610b0b57610afd8183611c4c565b9490610d4c565b60058201805491907f00000000000000000000000000000000000000000000000000000000000000006001600160a01b0316803b15610174576040516366398b8b60e11b815280890194855293600091859182908490829060200103925af19081156103ae57610cc99360009261107e575b50559050610cc0565b806103a261108b92611c17565b38611075565b5060058201541515610cbb565b60405163cd1c886760e01b81528690fd5b6040516303abb15560e51b81528590fd5b346101745760a03660031901126101745760048035906024356110e2816105bb565b604435916084356110f1612aaf565b611105856000526002602052604060002090565b805490946001600160a01b039133908316036105aa578386019261112d610494855460ff1690565b6105995761113a8661150a565b85156114c5578590600588019081548061143d575b506111598361150a565b600283149384801561142a575b611351575b50505061117a90600194611d64565b6111838561150a565b84830361124457507f000000000000000000000000000000000000000000000000000000000000000016930154833b15610174576040805163a25440a760e01b815292830191825260016020830152919360009285928391859183910103925af19081156103ae577f67d4c4fc54b59b0c047b4bb8edbbf1ec91de3457c643770b0dc36791e9966e139261122492611231575b505b6040519182918261202e565b0390a26100166001600055565b806103a261123e92611c17565b38611216565b61124d8561150a565b156112f7577f000000000000000000000000000000000000000000000000000000000000000016930154833b15610174576040805163a25440a760e01b81529283019182526002602083015291936000928592839185918391015b03925af19081156103ae577f67d4c4fc54b59b0c047b4bb8edbbf1ec91de3457c643770b0dc36791e9966e1392611224926112e4575b50611218565b806103a26112f192611c17565b386112de565b7f000000000000000000000000000000000000000000000000000000000000000016930154833b15610174576040805163a25440a760e01b81529283019182526003602083015291936000928592839185918391016112a8565b8091929350158015611422575b6114115760018901546040805163258726b960e21b8152338a8201908152602081810194909452918201939093526064356060820152608081019390935290918290819060a00103816000887f0000000000000000000000000000000000000000000000000000000000000000165af19485156103ae5760019561117a9389936000926113f0575b505594819261116b565b61140a91925060203d602011610a7257610a648183611c4c565b90386113e6565b60405163746bcd8360e11b81528790fd5b50811561135e565b506114348461150a565b60038414611166565b9250847f000000000000000000000000000000000000000000000000000000000000000016803b1561017457604080516342cdcbff60e11b815233818b01908152602081019690965294600092869290918391859183910103925af19283156103ae5788936114b2575b50600082553861114f565b806103a26114bf92611c17565b386114a7565b60405163748c275160e11b81528590fd5b34610174576000366003190112610174576020600154604051908152f35b634e487b7160e01b600052602160045260246000fd5b6004111561151457565b6114f4565b346101745760e08060031936011261017457611533612192565b91604080519260408401906040855280518092526060808601946020809301946000925b85841061156b578880898c60208301520390f35b9091929394959685846001928a5180518252848060a01b03848201511684830152868101518783015285810151868301526080808201519083015260a080820151906115b68261150a565b83015260c0908101519082015201980196959401929190611557565b34610174576000366003190112610174576040517f00000000000000000000000000000000000000000000000000000000000000006001600160a01b03168152602090f35b6001600160a01b0381160361017457565b602090602060408183019282815285518094520193019160005b828110611650575050505090565b835185529381019392810192600101611642565b34610174576020366003190112610174576004803561168281611617565b600191825461169081612116565b92600092855b838111156116b357848652604051806116af8882611628565b0390f35b806116d5836116cd8a946000526002602052604060002090565b015460ff1690565b6116e0575b01611696565b60405163c6f4a37f60e01b81526001600160a01b0385168482019081529092506000908390819060200103817f00000000000000000000000000000000000000000000000000000000000000006001600160a01b03165afa9182156103ae57889283916000916117b4575b50906000905b61175d575b50506116da565b81518110156117af57611770818361215e565b5184611786856000526002602052604060002090565b01541461179557830183611751565b50509480866117a584938a61215e565b5201943880611756565b611756565b6117cf913d8091833e6117c78183611c4c565b810190612657565b3861174b565b346101745760603660031901126101745767ffffffffffffffff6024358181116101745736602382011215610174578060040135918211610174573660248360051b83010111610174576100169160246044359261183284611617565b016004356126d1565b34610174576020366003190112610174576040611859600435612a53565b825191151582526020820152f35b34610174576000366003190112610174576040517f00000000000000000000000000000000000000000000000000000000000000006001600160a01b03168152602090f35b34610174576040806003193601126101745760048035916024356118cf81612116565b9260009260009360019660018101809111611964576001548897969591885b611904575b868852604051806116af8a82611628565b818111158061195b575b156119565790818493928a97969552600260205260ff8686862001541661193d575b86019091929394956118ee565b9686818961194c83948d61215e565b5201979050611930565b6118f3565b5082871061190e565b611f93565b346101745760208060031936011261017457600490600435916001906001549061199282612116565b946000809560015b858111156119b357878952604051806116af8b82611628565b80835260028252604083208460ff878301541691826119f4575b50506119db575b860161199a565b968681896119ea83948d61215e565b52019790506119d4565b6003015414905084386119cd565b346101745760408060031936011261017457600480359160243591611a25612aaf565b8215611b6f57611a3f846000526002602052604060002090565b80549091906001600160a01b03903390821603611b60578183015460ff811615611b505760ff60029160081c16611a758161150a565b14611b4157600183015484516331a9108f60e11b815283810191825291906020908390819083010381847f0000000000000000000000000000000000000000000000000000000000000000165afa9182156103ae57600092611b20575b5033911603611b125750600201829055519081527f522acc74fb3f21f3b09a9a4667b5faba86eb39c7f6b916a64f9114e68765abb4908060208101611224565b8251631022318760e21b8152fd5b611b3a91925060203d602011610bdb57610bcd8183611c4c565b9038611ad2565b5082516307a92f1960e51b8152fd5b84516366cb03e960e01b81528390fd5b508251635ec8235160e01b8152fd5b90516323a3620960e01b8152fd5b3461017457602036600319011261017457600435600052600260205260e0604060002060018060a01b038154169060018101549060ff600282015460038301546004840154916005848460081c16950154956040519788526020880152604087015260608601521615156080840152611bf58161150a565b60a083015260c0820152f35b634e487b7160e01b600052604160045260246000fd5b67ffffffffffffffff8111611c2b57604052565b611c01565b60e0810190811067ffffffffffffffff821117611c2b57604052565b90601f8019910116810190811067ffffffffffffffff821117611c2b57604052565b5190811515820361017457565b9081602091031261017457611c8f90611c6e565b90565b6040513d6000823e3d90fd5b908160209103126101745751611c8f81611617565b9190826040910312610174576020611cca83611c6e565b92015190565b90816020910312610174575190565b60405190611cec82611c30565b565b908160e091031261017457611d5060c060405192611d0b84611c30565b805184526020810151611d1d81611617565b602085015260408101516040850152606081015160608501526080810151608085015260a081015160a085015201611c6e565b60c082015290565b611d618261150a565b52565b90611d6e8161150a565b61ff0082549160081b169061ff001916179055565b9060c060059160018060a01b038151166bffffffffffffffffffffffff60a01b855416178455602081015160018501556040810151600285015560608101516003850155611df5600485016080830151151560ff8019835416911617815560a083015190611df08261150a565b611d64565b0151910155565b9192608093969594919660a0840197845260208401526040830152611e208161150a565b60608201520152565b919082610140910312610174578151611e4181611617565b9160208101519160408201519160608101519160808201519160a08101519160c0820151611e6e81611617565b9160e081015191611c8f610120611e886101008501611c6e565b9301611c6e565b611ea3906000526002602052604060002090565b611eb4610494600483015460ff1690565b8015611f87575b611f8157600501546040516378bd793560e01b815260048101919091526101409081816024816001600160a01b037f0000000000000000000000000000000000000000000000000000000000000000165afa9182156103ae57600091600091600094611f45575b505082611f3c575b5081611f34575090565b905042101590565b15915038611f2a565b91509150611f689250803d10611f7a575b611f608183611c4c565b810190611e29565b98509650505092505050903880611f22565b503d611f56565b50600090565b50600581015415611ebb565b634e487b7160e01b600052601160045260246000fd5b9060fa82029180830460fa149015171561196457565b8181029291811591840414171561196457565b60001981019190821161196457565b9190820391821161196457565b3d15612029573d9067ffffffffffffffff8211611c2b576040519161201d601f8201601f191660200184611c4c565b82523d6000602084013e565b606090565b91906020830192611d618261150a565b67ffffffffffffffff8111611c2b5760051b60200190565b6040516020810181811067ffffffffffffffff821117611c2b576040526000815290565b906120848261203e565b6040906120946040519182611c4c565b83815280936120a5601f199161203e565b019160005b8381106120b75750505050565b60209082516120c581611c30565b60008152826000818301526000858301526000606083015260006080830152600060a0830152600060c08301528286010152016120aa565b6003111561151457565b60843560038110156101745790565b906121208261203e565b61212d6040519182611c4c565b828152809261213e601f199161203e565b0190602036910137565b634e487b7160e01b600052603260045260246000fd5b80518210156121725760209160051b010190565b612148565b906001820180921161196457565b9190820180921161196457565b60c435908115801561264d575b61263b57606435801515908161262f575b5061261d5760009160018054905b818111156125e95750831580156125dd575b6125cf576060806121df612107565b6121e8816120fd565b612417575b6121fa60a4359485612185565b9386851161240f575b61220d8186611fe1565b936122178561207a565b95612220612107565b612229816120fd565b156122fb57505060005b8481106122435750505050509190565b8061225961225360019385612185565b8561215e565b5161226e816000526002602052604060002090565b80546122da906001600160a01b0316918581015460028201546003830154916122c360056122a4600487015460ff9060081c1690565b950154966122b0611cdf565b9889526001600160a01b03166020890152565b60408701528a860152608085015260a08401611d58565b60c08201526122e9828961215e565b526122f4818861215e565b5001612233565b945095909496915060009360015b8781111580612406575b156123fb5761232c816000526002602052604060002090565b61233581612ade565b612343575b50600101612309565b8660019297918b898b86951015612360575b50505001959061233a565b82546123f293906123d2906001600160a01b031691878101548d6002830154906003840154926123bc600561239d600488015460ff9060081c1690565b960154976123a9611cdf565b998a526001600160a01b031660208a0152565b6040880152860152608085015260a08401611d58565b60c08201526123eb6123e48d86611fe1565b809361215e565b528c61215e565b50388b89612355565b509195509350505050565b50818610612313565b869450612203565b5092919061242485612116565b9261242e86612116565b92600060015b8481111561257a5750506000925b61244b88611fd2565b84101561256e57600096875b612469612464878c611fe1565b611fd2565b81101561254f57600161247a612107565b612483816120fd565b0361253157612492818861215e565b516124a561249f83612177565b8961215e565b51115b6124b5575b600101612457565b97506124c96124c389612177565b8761215e565b516124d4898861215e565b516124e161249f8b612177565b526124ec898861215e565b526124ff6124f989612177565b8861215e565b5161250a898961215e565b5161251d6125178b612177565b8a61215e565b52612528898961215e565b526001976124ad565b61253b818861215e565b5161254861249f83612177565b51106124a8565b5096939093156125625760010192612442565b509390949192506121ed565b935093909491506121ed565b61258e816000526002602052604060002090565b61259781612ade565b6125a5575b50600101612434565b8260026001939492856125b986958d61215e565b5201546125c6828a61215e565b5201919061259c565b50506125d9612056565b9190565b508360a43510156121d0565b612605612600826000526002602052604060002090565b612ade565b612612575b6001016121be565b60019094019361260a565b6040516330b349d160e11b8152600490fd5b905060443511386121b0565b6040516372dbed9760e11b8152600490fd5b506064821161219f565b60209081818403126101745780519067ffffffffffffffff821161017457019180601f8401121561017457825161268d8161203e565b9361269b6040519586611c4c565b818552838086019260051b820101928311610174578301905b8282106126c2575050505090565b815181529083019083016126b4565b9392936126dc612aaf565b6001600160a01b03907f0000000000000000000000000000000000000000000000000000000000000000821690813b1561017457839160409760405180926368a7226360e11b825281898161273f6000988997889460049c3393600487016129e7565b03925af180156103ae576129b0575b5080915b85831061279d57505050507fdaf280d126e23864e5a36bbd7545421f2ca131b3f367a1aff48282f3662c35a692935061279060405192839283612a42565b0390a1611cec6001600055565b919492956127ae8685879497612a1d565b359360015b60015481116129a0576127d0816000526002602052604060002090565b858101906127df825460ff1690565b80612993575b6127f35750506001016127b3565b6005919250999692989399979497015480612914575b50805460ff191690555b88516323c1f0ad60e21b81528481018281527f00000000000000000000000000000000000000000000000000000000000000008716929160209182908290819083010381875afa9182156103ae5786926128e7575b50506128738161150a565b612885575b50506001905b0191612752565b813b156128e357895163a25440a760e01b8152858101918252600060208301529291849184919082908490829060400103925af19182156103ae576001926128d0575b819250612878565b806103a26128dd92611c17565b386128c8565b8380fd5b6129069250803d1061290d575b6128fe8183611c4c565b810190612a2d565b3880612868565b503d6128f4565b867f00000000000000000000000000000000000000000000000000000000000000001690813b1561298f578b516366398b8b60e11b81528781019182529291869184919082908490829060200103925af19182156103ae576128139261297c575b5090612809565b806103a261298992611c17565b38612975565b8580fd5b50876001820154146127e5565b509560019197945094919461287e565b806103a26129bd92611c17565b3861274e565b81835290916001600160fb1b0383116101745760209260051b809284830137010190565b9391606093612a069297969786526080602087015260808601916129c3565b6001600160a01b0391821660408501529416910152565b91908110156121725760051b0190565b908160209103126101745751611c8f816105bb565b916020611c8f9381815201916129c3565b906001918254925b83811115612a6f5750509050600090600090565b60406000828152600260205220826001820154149081612aa0575b50612a9757600101612a5b565b92505060019190565b60ff9150600401541638612a8a565b600260005414612ac0576002600055565b604051633ee5aeb560e01b8152600490fd5b600435611c8f816105bb565b600481015460ff811615612ba257612af4612ad2565b612afd8161150a565b15159081612b77575b50611f81576024358015159081612b68575b50611f81576044358015159081612b5a575b50611f81576064358015159182612b4c575b5050612b4757600190565b600090565b600201541190503880612b3c565b905060028201541038612b2a565b90506003820154141538612b18565b60ff915060081c16612b87612ad2565b90612b918261150a565b612b9a8161150a565b141538612b06565b505060009056fea26469706673582212208c53f5729feb1f55a46527d19c5e1b732d0c367a57ed7a4f2b735f093b1d305c64736f6c63430008180033",
  "linkReferences": {},
  "deployedLinkReferences": {}
}